{
  "contractName": "BaseFixedERC20Token",
  "abi": [
    {
      "constant": false,
      "inputs": [
        {
          "name": "spender_",
          "type": "address"
        },
        {
          "name": "value_",
          "type": "uint256"
        }
      ],
      "name": "approve",
      "outputs": [
        {
          "name": "",
          "type": "bool"
        }
      ],
      "payable": false,
      "stateMutability": "nonpayable",
      "type": "function"
    },
    {
      "constant": true,
      "inputs": [],
      "name": "totalSupply",
      "outputs": [
        {
          "name": "",
          "type": "uint256"
        }
      ],
      "payable": false,
      "stateMutability": "view",
      "type": "function"
    },
    {
      "constant": false,
      "inputs": [
        {
          "name": "from_",
          "type": "address"
        },
        {
          "name": "to_",
          "type": "address"
        },
        {
          "name": "value_",
          "type": "uint256"
        }
      ],
      "name": "transferFrom",
      "outputs": [
        {
          "name": "",
          "type": "bool"
        }
      ],
      "payable": false,
      "stateMutability": "nonpayable",
      "type": "function"
    },
    {
      "constant": true,
      "inputs": [
        {
          "name": "owner_",
          "type": "address"
        }
      ],
      "name": "balanceOf",
      "outputs": [
        {
          "name": "balance",
          "type": "uint256"
        }
      ],
      "payable": false,
      "stateMutability": "view",
      "type": "function"
    },
    {
      "constant": true,
      "inputs": [],
      "name": "owner",
      "outputs": [
        {
          "name": "",
          "type": "address"
        }
      ],
      "payable": false,
      "stateMutability": "view",
      "type": "function"
    },
    {
      "constant": false,
      "inputs": [],
      "name": "unlock",
      "outputs": [],
      "payable": false,
      "stateMutability": "nonpayable",
      "type": "function"
    },
    {
      "constant": false,
      "inputs": [
        {
          "name": "to_",
          "type": "address"
        },
        {
          "name": "value_",
          "type": "uint256"
        }
      ],
      "name": "transfer",
      "outputs": [
        {
          "name": "",
          "type": "bool"
        }
      ],
      "payable": false,
      "stateMutability": "nonpayable",
      "type": "function"
    },
    {
      "constant": true,
      "inputs": [],
      "name": "locked",
      "outputs": [
        {
          "name": "",
          "type": "bool"
        }
      ],
      "payable": false,
      "stateMutability": "view",
      "type": "function"
    },
    {
      "constant": true,
      "inputs": [
        {
          "name": "owner_",
          "type": "address"
        },
        {
          "name": "spender_",
          "type": "address"
        }
      ],
      "name": "allowance",
      "outputs": [
        {
          "name": "",
          "type": "uint256"
        }
      ],
      "payable": false,
      "stateMutability": "view",
      "type": "function"
    },
    {
      "constant": false,
      "inputs": [
        {
          "name": "newOwner",
          "type": "address"
        }
      ],
      "name": "transferOwnership",
      "outputs": [],
      "payable": false,
      "stateMutability": "nonpayable",
      "type": "function"
    },
    {
      "constant": false,
      "inputs": [],
      "name": "lock",
      "outputs": [],
      "payable": false,
      "stateMutability": "nonpayable",
      "type": "function"
    },
    {
      "anonymous": false,
      "inputs": [
        {
          "indexed": true,
          "name": "from",
          "type": "address"
        },
        {
          "indexed": true,
          "name": "to",
          "type": "address"
        },
        {
          "indexed": false,
          "name": "value",
          "type": "uint256"
        }
      ],
      "name": "Transfer",
      "type": "event"
    },
    {
      "anonymous": false,
      "inputs": [
        {
          "indexed": true,
          "name": "owner",
          "type": "address"
        },
        {
          "indexed": true,
          "name": "spender",
          "type": "address"
        },
        {
          "indexed": false,
          "name": "value",
          "type": "uint256"
        }
      ],
      "name": "Approval",
      "type": "event"
    },
    {
      "anonymous": false,
      "inputs": [],
      "name": "Lock",
      "type": "event"
    },
    {
      "anonymous": false,
      "inputs": [],
      "name": "Unlock",
      "type": "event"
    },
    {
      "anonymous": false,
      "inputs": [
        {
          "indexed": true,
          "name": "previousOwner",
          "type": "address"
        },
        {
          "indexed": true,
          "name": "newOwner",
          "type": "address"
        }
      ],
      "name": "OwnershipTransferred",
      "type": "event"
    }
  ],
  "bytecode": "0x606060405260008054600160a060020a033316600160a860020a0319909116179055610861806100306000396000f3006060604052600436106100ae5763ffffffff7c0100000000000000000000000000000000000000000000000000000000600035041663095ea7b381146100b357806318160ddd146100e957806323b872dd1461010e57806370a08231146101365780638da5cb5b14610155578063a69df4b514610184578063a9059cbb14610199578063cf309012146101bb578063dd62ed3e146101ce578063f2fde38b146101f3578063f83d08ba14610212575b600080fd5b34156100be57600080fd5b6100d5600160a060020a0360043516602435610225565b604051901515815260200160405180910390f35b34156100f457600080fd5b6100fc6102f4565b60405190815260200160405180910390f35b341561011957600080fd5b6100d5600160a060020a03600435811690602435166044356102fa565b341561014157600080fd5b6100fc600160a060020a03600435166104a3565b341561016057600080fd5b6101686104be565b604051600160a060020a03909116815260200160405180910390f35b341561018f57600080fd5b6101976104cd565b005b34156101a457600080fd5b6100d5600160a060020a036004351660243561055d565b34156101c657600080fd5b6100d5610680565b34156101d957600080fd5b6100fc600160a060020a03600435811690602435166106a1565b34156101fe57600080fd5b610197600160a060020a03600435166106cc565b341561021d57600080fd5b610197610767565b6000805474010000000000000000000000000000000000000000900460ff161561024e57600080fd5b81158015906102815750600160a060020a0333811660009081526003602090815260408083209387168352929052205415155b1561028b57600080fd5b600160a060020a03338116600081815260036020908152604080832094881680845294909152908190208590557f8c5be1e5ebec7d5bd14f71427d1e84f3dd0314c0f7b2291e5b200ac8c7c3b9259085905190815260200160405180910390a350600192915050565b60015481565b6000805474010000000000000000000000000000000000000000900460ff161561032357600080fd5b600160a060020a038316158015906103535750600160a060020a0384166000908152600260205260409020548211155b80156103855750600160a060020a03808516600090815260036020908152604080832033909416835292905220548211155b151561039057600080fd5b600160a060020a0384166000908152600260205260409020546103b9908363ffffffff61080d16565b600160a060020a0380861660009081526002602052604080822093909355908516815220546103ee908363ffffffff61081f16565b600160a060020a03808516600090815260026020908152604080832094909455878316825260038152838220339093168252919091522054610436908363ffffffff61080d16565b600160a060020a03808616600081815260036020908152604080832033861684529091529081902093909355908516917fddf252ad1be2c89b69c2b068fc378daa952ba7f163c4a11628f55a4df523b3ef9085905190815260200160405180910390a35060019392505050565b600160a060020a031660009081526002602052604090205490565b600054600160a060020a031681565b60005433600160a060020a039081169116146104e857600080fd5b60005474010000000000000000000000000000000000000000900460ff16151561051157600080fd5b6000805474ff0000000000000000000000000000000000000000191690557f70e3fffea7bbb557facdee48ed7f7af5179030adef9ad0c876df039a718f359e60405160405180910390a1565b6000805474010000000000000000000000000000000000000000900460ff161561058657600080fd5b600160a060020a038316158015906105b65750600160a060020a0333166000908152600260205260409020548211155b15156105c157600080fd5b600160a060020a0333166000908152600260205260409020546105ea908363ffffffff61080d16565b600160a060020a03338116600090815260026020526040808220939093559085168152205461061f908363ffffffff61081f16565b600160a060020a0380851660008181526002602052604090819020939093559133909116907fddf252ad1be2c89b69c2b068fc378daa952ba7f163c4a11628f55a4df523b3ef9085905190815260200160405180910390a350600192915050565b60005474010000000000000000000000000000000000000000900460ff1681565b600160a060020a03918216600090815260036020908152604080832093909416825291909152205490565b60005433600160a060020a039081169116146106e757600080fd5b600160a060020a03811615156106fc57600080fd5b600054600160a060020a0380831691167f8be0079c531659141344cd1fd0a4f28419497f9722a3daafe3b4186f6b6457e060405160405180910390a36000805473ffffffffffffffffffffffffffffffffffffffff1916600160a060020a0392909216919091179055565b60005433600160a060020a0390811691161461078257600080fd5b60005474010000000000000000000000000000000000000000900460ff16156107aa57600080fd5b6000805474ff00000000000000000000000000000000000000001916740100000000000000000000000000000000000000001790557f46620e39f4e119bf05f13544f8ef38338fc06c17f6b731c7f95bee356572db9660405160405180910390a1565b60008282111561081957fe5b50900390565b60008282018381101561082e57fe5b93925050505600a165627a7a72305820987a55c923d6da5071f66dbeb027188fe453017c2e5dacb463b00fc46339c9370029",
  "source": "pragma solidity ^0.4.18;\n\nimport '../commons/SafeMath.sol';\nimport \"../flavours/Lockable.sol\";\n\ncontract BaseFixedERC20Token is Lockable {\n  using SafeMath for uint;\n\n  /// @dev ERC20 Total supply\n  uint public totalSupply;\n\n  mapping(address => uint) balances;\n\n  mapping(address => mapping (address => uint)) private allowed;\n\n  /// @dev Fired if Token transfered accourding to ERC20\n  event Transfer(address indexed from, address indexed to, uint value);\n\n  /// @dev Fired if Token withdraw is approved accourding to ERC20\n  event Approval(address indexed owner, address indexed spender, uint value);\n\n  /**\n   * @dev Gets the balance of the specified address.\n   * @param owner_ The address to query the the balance of.\n   * @return An uint representing the amount owned by the passed address.\n   */\n  function balanceOf(address owner_) public view returns (uint balance) {\n    return balances[owner_];\n  }\n\n  /**\n   * @dev Transfer token for a specified address\n   * @param to_ The address to transfer to.\n   * @param value_ The amount to be transferred.\n   */\n  function transfer(address to_, uint value_) whenNotLocked public returns (bool) {\n    require(to_ != address(0) && value_ <= balances[msg.sender]);\n    // SafeMath.sub will throw if there is not enough balance.\n    balances[msg.sender] = balances[msg.sender].sub(value_);\n    balances[to_] = balances[to_].add(value_);\n    Transfer(msg.sender, to_, value_);\n    return true;\n  }\n\n  /**\n   * @dev Transfer tokens from one address to another\n   * @param from_ address The address which you want to send tokens from\n   * @param to_ address The address which you want to transfer to\n   * @param value_ uint the amount of tokens to be transferred\n   */\n  function transferFrom(address from_, address to_, uint value_) whenNotLocked public returns (bool) {\n    require(to_ != address(0) && value_ <= balances[from_] && value_ <= allowed[from_][msg.sender]);\n    balances[from_] = balances[from_].sub(value_);\n    balances[to_] = balances[to_].add(value_);\n    allowed[from_][msg.sender] = allowed[from_][msg.sender].sub(value_);\n    Transfer(from_, to_, value_);\n    return true;\n  }\n\n  /**\n   * @dev Approve the passed address to spend the specified amount of tokens on behalf of msg.sender.\n   *\n   * Beware that changing an allowance with this method brings the risk that someone may use both the old\n   * and the new allowance by unfortunate transaction ordering.\n   *\n   * To change the approve amount you first have to reduce the addresses\n   * allowance to zero by calling `approve(spender_, 0)` if it is not\n   * already 0 to mitigate the race condition described in:\n   * https://github.com/ethereum/EIPs/issues/20#issuecomment-263524729\n   *\n   * @param spender_ The address which will spend the funds.\n   * @param value_ The amount of tokens to be spent.\n   */\n  function approve(address spender_, uint value_) whenNotLocked public returns (bool) {\n    if (value_ != 0 && allowed[msg.sender][spender_] != 0) {\n      revert();\n    }\n    allowed[msg.sender][spender_] = value_;\n    Approval(msg.sender, spender_, value_);\n    return true;\n  }\n\n  /**\n   * @dev Function to check the amount of tokens that an owner allowed to a spender.\n   * @param owner_ address The address which owns the funds.\n   * @param spender_ address The address which will spend the funds.\n   * @return A uint specifying the amount of tokens still available for the spender.\n   */\n  function allowance(address owner_, address spender_) view public returns (uint) {\n    return allowed[owner_][spender_];\n  }\n}\n",
  "sourcePath": "/home/adam/Projects/fl/otcrit-token-service/otcrit-contracts/eth/contracts/base/BaseFixedERC20Token.sol",
  "compiler": {
    "name": "solc",
    "version": "0.4.18+commit.9cf6e910.Emscripten.clang"
  },
  "schemaVersion": "1.0.1",
  "updatedAt": "2018-01-23T09:38:32.076Z"
}