{
  "contractName": "BaseICOToken",
  "abi": [
    {
      "constant": false,
      "inputs": [
        {
          "name": "spender_",
          "type": "address"
        },
        {
          "name": "value_",
          "type": "uint256"
        }
      ],
      "name": "approve",
      "outputs": [
        {
          "name": "",
          "type": "bool"
        }
      ],
      "payable": false,
      "stateMutability": "nonpayable",
      "type": "function"
    },
    {
      "constant": true,
      "inputs": [],
      "name": "totalSupply",
      "outputs": [
        {
          "name": "",
          "type": "uint256"
        }
      ],
      "payable": false,
      "stateMutability": "view",
      "type": "function"
    },
    {
      "constant": false,
      "inputs": [
        {
          "name": "from_",
          "type": "address"
        },
        {
          "name": "to_",
          "type": "address"
        },
        {
          "name": "value_",
          "type": "uint256"
        }
      ],
      "name": "transferFrom",
      "outputs": [
        {
          "name": "",
          "type": "bool"
        }
      ],
      "payable": false,
      "stateMutability": "nonpayable",
      "type": "function"
    },
    {
      "constant": true,
      "inputs": [],
      "name": "ico",
      "outputs": [
        {
          "name": "",
          "type": "address"
        }
      ],
      "payable": false,
      "stateMutability": "view",
      "type": "function"
    },
    {
      "constant": false,
      "inputs": [
        {
          "name": "ico_",
          "type": "address"
        }
      ],
      "name": "changeICO",
      "outputs": [],
      "payable": false,
      "stateMutability": "nonpayable",
      "type": "function"
    },
    {
      "constant": true,
      "inputs": [
        {
          "name": "owner_",
          "type": "address"
        }
      ],
      "name": "balanceOf",
      "outputs": [
        {
          "name": "balance",
          "type": "uint256"
        }
      ],
      "payable": false,
      "stateMutability": "view",
      "type": "function"
    },
    {
      "constant": false,
      "inputs": [
        {
          "name": "to_",
          "type": "address"
        },
        {
          "name": "amount_",
          "type": "uint256"
        }
      ],
      "name": "icoInvestment",
      "outputs": [
        {
          "name": "",
          "type": "uint256"
        }
      ],
      "payable": false,
      "stateMutability": "nonpayable",
      "type": "function"
    },
    {
      "constant": true,
      "inputs": [],
      "name": "availableSupply",
      "outputs": [
        {
          "name": "",
          "type": "uint256"
        }
      ],
      "payable": false,
      "stateMutability": "view",
      "type": "function"
    },
    {
      "constant": true,
      "inputs": [],
      "name": "owner",
      "outputs": [
        {
          "name": "",
          "type": "address"
        }
      ],
      "payable": false,
      "stateMutability": "view",
      "type": "function"
    },
    {
      "constant": false,
      "inputs": [],
      "name": "unlock",
      "outputs": [],
      "payable": false,
      "stateMutability": "nonpayable",
      "type": "function"
    },
    {
      "constant": false,
      "inputs": [
        {
          "name": "to_",
          "type": "address"
        },
        {
          "name": "value_",
          "type": "uint256"
        }
      ],
      "name": "transfer",
      "outputs": [
        {
          "name": "",
          "type": "bool"
        }
      ],
      "payable": false,
      "stateMutability": "nonpayable",
      "type": "function"
    },
    {
      "constant": true,
      "inputs": [],
      "name": "locked",
      "outputs": [
        {
          "name": "",
          "type": "bool"
        }
      ],
      "payable": false,
      "stateMutability": "view",
      "type": "function"
    },
    {
      "constant": true,
      "inputs": [
        {
          "name": "owner_",
          "type": "address"
        },
        {
          "name": "spender_",
          "type": "address"
        }
      ],
      "name": "allowance",
      "outputs": [
        {
          "name": "",
          "type": "uint256"
        }
      ],
      "payable": false,
      "stateMutability": "view",
      "type": "function"
    },
    {
      "constant": false,
      "inputs": [
        {
          "name": "newOwner",
          "type": "address"
        }
      ],
      "name": "transferOwnership",
      "outputs": [],
      "payable": false,
      "stateMutability": "nonpayable",
      "type": "function"
    },
    {
      "constant": false,
      "inputs": [],
      "name": "lock",
      "outputs": [],
      "payable": false,
      "stateMutability": "nonpayable",
      "type": "function"
    },
    {
      "inputs": [
        {
          "name": "totalSupply_",
          "type": "uint256"
        }
      ],
      "payable": false,
      "stateMutability": "nonpayable",
      "type": "constructor"
    },
    {
      "anonymous": false,
      "inputs": [
        {
          "indexed": true,
          "name": "to",
          "type": "address"
        },
        {
          "indexed": false,
          "name": "amount",
          "type": "uint256"
        }
      ],
      "name": "ICOTokensInvested",
      "type": "event"
    },
    {
      "anonymous": false,
      "inputs": [
        {
          "indexed": true,
          "name": "icoContract",
          "type": "address"
        }
      ],
      "name": "ICOChanged",
      "type": "event"
    },
    {
      "anonymous": false,
      "inputs": [
        {
          "indexed": true,
          "name": "from",
          "type": "address"
        },
        {
          "indexed": true,
          "name": "to",
          "type": "address"
        },
        {
          "indexed": false,
          "name": "value",
          "type": "uint256"
        }
      ],
      "name": "Transfer",
      "type": "event"
    },
    {
      "anonymous": false,
      "inputs": [
        {
          "indexed": true,
          "name": "owner",
          "type": "address"
        },
        {
          "indexed": true,
          "name": "spender",
          "type": "address"
        },
        {
          "indexed": false,
          "name": "value",
          "type": "uint256"
        }
      ],
      "name": "Approval",
      "type": "event"
    },
    {
      "anonymous": false,
      "inputs": [],
      "name": "Lock",
      "type": "event"
    },
    {
      "anonymous": false,
      "inputs": [],
      "name": "Unlock",
      "type": "event"
    },
    {
      "anonymous": false,
      "inputs": [
        {
          "indexed": true,
          "name": "previousOwner",
          "type": "address"
        },
        {
          "indexed": true,
          "name": "newOwner",
          "type": "address"
        }
      ],
      "name": "OwnershipTransferred",
      "type": "event"
    }
  ],
  "bytecode": "0x60606040526000805460a060020a60ff0219169055341561001f57600080fd5b604051602080610b10833981016040528080516000805460a060020a60ff0219600160a060020a033316600160a060020a031990921691909117167401000000000000000000000000000000000000000017905560018190556004555050610a848061008c6000396000f3006060604052600436106100da5763ffffffff7c0100000000000000000000000000000000000000000000000000000000600035041663095ea7b381146100df57806318160ddd1461011557806323b872dd1461013a5780635d452201146101625780636d47fb711461019157806370a08231146101b25780637277236b146101d15780637ecc2b56146101f35780638da5cb5b14610206578063a69df4b514610219578063a9059cbb1461022c578063cf3090121461024e578063dd62ed3e14610261578063f2fde38b14610286578063f83d08ba146102a5575b600080fd5b34156100ea57600080fd5b610101600160a060020a03600435166024356102b8565b604051901515815260200160405180910390f35b341561012057600080fd5b610128610387565b60405190815260200160405180910390f35b341561014557600080fd5b610101600160a060020a036004358116906024351660443561038d565b341561016d57600080fd5b610175610536565b604051600160a060020a03909116815260200160405180910390f35b341561019c57600080fd5b6101b0600160a060020a0360043516610545565b005b34156101bd57600080fd5b610128600160a060020a03600435166105d3565b34156101dc57600080fd5b610128600160a060020a03600435166024356105ee565b34156101fe57600080fd5b61012861069f565b341561021157600080fd5b6101756106a5565b341561022457600080fd5b6101b06106b4565b341561023757600080fd5b610101600160a060020a0360043516602435610744565b341561025957600080fd5b610101610867565b341561026c57600080fd5b610128600160a060020a0360043581169060243516610888565b341561029157600080fd5b6101b0600160a060020a03600435166108b3565b34156102b057600080fd5b6101b061094e565b6000805474010000000000000000000000000000000000000000900460ff16156102e157600080fd5b81158015906103145750600160a060020a0333811660009081526003602090815260408083209387168352929052205415155b1561031e57600080fd5b600160a060020a03338116600081815260036020908152604080832094881680845294909152908190208590557f8c5be1e5ebec7d5bd14f71427d1e84f3dd0314c0f7b2291e5b200ac8c7c3b9259085905190815260200160405180910390a350600192915050565b60015481565b6000805474010000000000000000000000000000000000000000900460ff16156103b657600080fd5b600160a060020a038316158015906103e65750600160a060020a0384166000908152600260205260409020548211155b80156104185750600160a060020a03808516600090815260036020908152604080832033909416835292905220548211155b151561042357600080fd5b600160a060020a03841660009081526002602052604090205461044c908363ffffffff6109f416565b600160a060020a038086166000908152600260205260408082209390935590851681522054610481908363ffffffff610a0616565b600160a060020a038085166000908152600260209081526040808320949094558783168252600381528382203390931682529190915220546104c9908363ffffffff6109f416565b600160a060020a03808616600081815260036020908152604080832033861684529091529081902093909355908516917fddf252ad1be2c89b69c2b068fc378daa952ba7f163c4a11628f55a4df523b3ef9085905190815260200160405180910390a35060019392505050565b600554600160a060020a031681565b60005433600160a060020a0390811691161461056057600080fd5b600160a060020a038116151561057557600080fd5b6005805473ffffffffffffffffffffffffffffffffffffffff1916600160a060020a038381169190911791829055167ff75d34bb42a98ed9c96ce1821b7834a59d12693611bf4fe2776dae6d512d6d1460405160405180910390a250565b600160a060020a031660009081526002602052604090205490565b60006105fa8383610a1c565b151561060557600080fd5b6004548211156106155760045491505b600480548390039055600160a060020a038316600090815260026020526040902054610647908363ffffffff610a0616565b600160a060020a0384166000818152600260205260409081902092909255907fb34195a3d0de1e5150c8bbe5f5163b622b1ed771ce55319230906552a62160649084905190815260200160405180910390a250919050565b60045481565b600054600160a060020a031681565b60005433600160a060020a039081169116146106cf57600080fd5b60005474010000000000000000000000000000000000000000900460ff1615156106f857600080fd5b6000805474ff0000000000000000000000000000000000000000191690557f70e3fffea7bbb557facdee48ed7f7af5179030adef9ad0c876df039a718f359e60405160405180910390a1565b6000805474010000000000000000000000000000000000000000900460ff161561076d57600080fd5b600160a060020a0383161580159061079d5750600160a060020a0333166000908152600260205260409020548211155b15156107a857600080fd5b600160a060020a0333166000908152600260205260409020546107d1908363ffffffff6109f416565b600160a060020a033381166000908152600260205260408082209390935590851681522054610806908363ffffffff610a0616565b600160a060020a0380851660008181526002602052604090819020939093559133909116907fddf252ad1be2c89b69c2b068fc378daa952ba7f163c4a11628f55a4df523b3ef9085905190815260200160405180910390a350600192915050565b60005474010000000000000000000000000000000000000000900460ff1681565b600160a060020a03918216600090815260036020908152604080832093909416825291909152205490565b60005433600160a060020a039081169116146108ce57600080fd5b600160a060020a03811615156108e357600080fd5b600054600160a060020a0380831691167f8be0079c531659141344cd1fd0a4f28419497f9722a3daafe3b4186f6b6457e060405160405180910390a36000805473ffffffffffffffffffffffffffffffffffffffff1916600160a060020a0392909216919091179055565b60005433600160a060020a0390811691161461096957600080fd5b60005474010000000000000000000000000000000000000000900460ff161561099157600080fd5b6000805474ff00000000000000000000000000000000000000001916740100000000000000000000000000000000000000001790557f46620e39f4e119bf05f13544f8ef38338fc06c17f6b731c7f95bee356572db9660405160405180910390a1565b600082821115610a0057fe5b50900390565b600082820183811015610a1557fe5b9392505050565b60055460009033600160a060020a039081169116148015610a455750600160a060020a03831615155b8015610a155750506004549011159190505600a165627a7a72305820d73beea2f30f9236ca1cb7de42c3265fd89d1950120eb8af48cdb036c1615e210029",
  "source": "pragma solidity ^0.4.18;\n\nimport '../commons/SafeMath.sol';\nimport \"./BaseFixedERC20Token.sol\";\n\n/**\n * @dev Not mintable, ERC20 compilant token, distributed by ICO/Pre-ICO.\n */\ncontract BaseICOToken is BaseFixedERC20Token {\n\n  /// @dev Available supply of tokens\n  uint public availableSupply;\n\n  /// @dev ICO/Pre-ICO smart contract allowed to distribute public funds for this OTCToken\n  address public ico;\n\n  /// @dev Fired if investment for `amount` of tokens performed by `to` address\n  event ICOTokensInvested(address indexed to, uint amount);\n\n  /// @dev ICO contract changed for this token\n  event ICOChanged(address indexed icoContract);\n\n  /**\n   * @dev Not mintable, ERC20 compilant token, distributed by ICO/Pre-ICO.\n   * @param totalSupply_ Total tokens supply.\n   */\n  function BaseICOToken(uint totalSupply_) public {\n    locked = true;\n    totalSupply = totalSupply_;\n    availableSupply = totalSupply_;\n  }\n\n  function isValidICOInvestment(address to_, uint amount_) internal view returns(bool) {\n    return msg.sender == ico && to_ != address(0) && amount_ <= availableSupply;\n  }\n\n  /**\n   * @dev Set address of ICO smart-contract which controls token\n   * initial token distribution.\n   * @param ico_ ICO contract address.\n   */\n  function changeICO(address ico_) onlyOwner public {\n    require(ico_ != address(0));\n    ico = ico_;\n    ICOChanged(ico);\n  }\n\n  /**\n   * @dev Assign `amount_` of tokens to investor identified by `to_` address.\n   * @param to_ Investor address.\n   * @param amount_ Number of tokens distributed.\n   */\n  function icoInvestment(address to_, uint amount_) public returns (uint) {\n    require(isValidICOInvestment(to_, amount_));\n    if (amount_ > availableSupply) {\n      amount_ = availableSupply;\n    }\n    availableSupply -= amount_;\n    balances[to_] = balances[to_].add(amount_);\n    ICOTokensInvested(to_, amount_);\n    return amount_;\n  }\n}",
  "sourcePath": "/home/adam/Projects/fl/otcrit-token-service/otcrit-contracts/eth/contracts/base/BaseICOToken.sol",
  "compiler": {
    "name": "solc",
    "version": "0.4.18+commit.9cf6e910.Emscripten.clang"
  },
  "schemaVersion": "1.0.1",
  "updatedAt": "2018-01-22T05:42:38.132Z"
}