{
  "contractName": "Lockable",
  "abi": [
    {
      "constant": true,
      "inputs": [],
      "name": "owner",
      "outputs": [
        {
          "name": "",
          "type": "address"
        }
      ],
      "payable": false,
      "stateMutability": "view",
      "type": "function"
    },
    {
      "constant": false,
      "inputs": [],
      "name": "unlock",
      "outputs": [],
      "payable": false,
      "stateMutability": "nonpayable",
      "type": "function"
    },
    {
      "constant": true,
      "inputs": [],
      "name": "locked",
      "outputs": [
        {
          "name": "",
          "type": "bool"
        }
      ],
      "payable": false,
      "stateMutability": "view",
      "type": "function"
    },
    {
      "constant": false,
      "inputs": [
        {
          "name": "newOwner",
          "type": "address"
        }
      ],
      "name": "transferOwnership",
      "outputs": [],
      "payable": false,
      "stateMutability": "nonpayable",
      "type": "function"
    },
    {
      "constant": false,
      "inputs": [],
      "name": "lock",
      "outputs": [],
      "payable": false,
      "stateMutability": "nonpayable",
      "type": "function"
    },
    {
      "anonymous": false,
      "inputs": [],
      "name": "Lock",
      "type": "event"
    },
    {
      "anonymous": false,
      "inputs": [],
      "name": "Unlock",
      "type": "event"
    },
    {
      "anonymous": false,
      "inputs": [
        {
          "indexed": true,
          "name": "previousOwner",
          "type": "address"
        },
        {
          "indexed": true,
          "name": "newOwner",
          "type": "address"
        }
      ],
      "name": "OwnershipTransferred",
      "type": "event"
    }
  ],
  "bytecode": "0x606060405260008054600160a060020a033316600160a860020a03199091161790556103b0806100306000396000f30060606040526004361061006c5763ffffffff7c01000000000000000000000000000000000000000000000000000000006000350416638da5cb5b8114610071578063a69df4b5146100ad578063cf309012146100c2578063f2fde38b146100e9578063f83d08ba14610115575b600080fd5b341561007c57600080fd5b610084610128565b60405173ffffffffffffffffffffffffffffffffffffffff909116815260200160405180910390f35b34156100b857600080fd5b6100c0610144565b005b34156100cd57600080fd5b6100d56101e1565b604051901515815260200160405180910390f35b34156100f457600080fd5b6100c073ffffffffffffffffffffffffffffffffffffffff60043516610202565b341561012057600080fd5b6100c06102d1565b60005473ffffffffffffffffffffffffffffffffffffffff1681565b6000543373ffffffffffffffffffffffffffffffffffffffff90811691161461016c57600080fd5b60005474010000000000000000000000000000000000000000900460ff16151561019557600080fd5b6000805474ff0000000000000000000000000000000000000000191690557f70e3fffea7bbb557facdee48ed7f7af5179030adef9ad0c876df039a718f359e60405160405180910390a1565b60005474010000000000000000000000000000000000000000900460ff1681565b6000543373ffffffffffffffffffffffffffffffffffffffff90811691161461022a57600080fd5b73ffffffffffffffffffffffffffffffffffffffff8116151561024c57600080fd5b60005473ffffffffffffffffffffffffffffffffffffffff80831691167f8be0079c531659141344cd1fd0a4f28419497f9722a3daafe3b4186f6b6457e060405160405180910390a36000805473ffffffffffffffffffffffffffffffffffffffff191673ffffffffffffffffffffffffffffffffffffffff92909216919091179055565b6000543373ffffffffffffffffffffffffffffffffffffffff9081169116146102f957600080fd5b60005474010000000000000000000000000000000000000000900460ff161561032157600080fd5b6000805474ff00000000000000000000000000000000000000001916740100000000000000000000000000000000000000001790557f46620e39f4e119bf05f13544f8ef38338fc06c17f6b731c7f95bee356572db9660405160405180910390a15600a165627a7a723058200375e2b34dfbdaadafd0515648496a7e529f66bbcfdd57d79238fba7cf91a4920029",
  "source": "pragma solidity ^0.4.18;\n\nimport \"./Ownable.sol\";\n\n/**\n * @title Lockable\n * @dev Base contract which allows children to\n *      implement main operations locking mechanism.\n */\ncontract Lockable is Ownable {\n  event Lock();\n  event Unlock();\n\n  bool public locked = false;\n\n  /**\n   * @dev Modifier to make a function callable\n  *       only when the contract is not locked.\n   */\n  modifier whenNotLocked() {\n    require(!locked);\n    _;\n  }\n\n  /**\n   * @dev Modifier to make a function callable\n   *      only when the contract is locked.\n   */\n  modifier whenLocked() {\n    require(locked);\n    _;\n  }\n\n  /**\n   * @dev called by the owner to locke, triggers locked state\n   */\n  function lock() onlyOwner whenNotLocked public {\n    locked = true;\n    Lock();\n  }\n\n  /**\n   * @dev called by the owner\n   *      to unlock, returns to unlocked state\n   */\n  function unlock() onlyOwner whenLocked public {\n    locked = false;\n    Unlock();\n  }\n}\n",
  "sourcePath": "/home/adam/Projects/fl/otcrit-token-service/otcrit-contracts/eth/contracts/flavours/Lockable.sol",
  "compiler": {
    "name": "solc",
    "version": "0.4.18+commit.9cf6e910.Emscripten.clang"
  },
  "schemaVersion": "1.0.1",
  "updatedAt": "2018-01-24T05:16:04.647Z"
}