{
  "contractName": "OTCPreICO",
  "abi": [
    {
      "constant": false,
      "inputs": [],
      "name": "resume",
      "outputs": [],
      "payable": false,
      "stateMutability": "nonpayable",
      "type": "function"
    },
    {
      "constant": false,
      "inputs": [],
      "name": "terminate",
      "outputs": [],
      "payable": false,
      "stateMutability": "nonpayable",
      "type": "function"
    },
    {
      "constant": true,
      "inputs": [],
      "name": "ETH_TOKEN_EXCHANGE_RATIO",
      "outputs": [
        {
          "name": "",
          "type": "uint256"
        }
      ],
      "payable": false,
      "stateMutability": "view",
      "type": "function"
    },
    {
      "constant": true,
      "inputs": [],
      "name": "bonusPct",
      "outputs": [
        {
          "name": "",
          "type": "uint8"
        }
      ],
      "payable": false,
      "stateMutability": "view",
      "type": "function"
    },
    {
      "constant": false,
      "inputs": [
        {
          "name": "endAt_",
          "type": "uint256"
        },
        {
          "name": "lowCapWei_",
          "type": "uint256"
        },
        {
          "name": "hardCapWei_",
          "type": "uint256"
        }
      ],
      "name": "tune",
      "outputs": [],
      "payable": false,
      "stateMutability": "nonpayable",
      "type": "function"
    },
    {
      "constant": true,
      "inputs": [],
      "name": "endAt",
      "outputs": [
        {
          "name": "",
          "type": "uint256"
        }
      ],
      "payable": false,
      "stateMutability": "view",
      "type": "function"
    },
    {
      "constant": false,
      "inputs": [
        {
          "name": "from_",
          "type": "address"
        },
        {
          "name": "wei_",
          "type": "uint256"
        }
      ],
      "name": "onInvestment",
      "outputs": [],
      "payable": false,
      "stateMutability": "nonpayable",
      "type": "function"
    },
    {
      "constant": true,
      "inputs": [],
      "name": "owner",
      "outputs": [
        {
          "name": "",
          "type": "address"
        }
      ],
      "payable": false,
      "stateMutability": "view",
      "type": "function"
    },
    {
      "constant": false,
      "inputs": [
        {
          "name": "endAt_",
          "type": "uint256"
        }
      ],
      "name": "start",
      "outputs": [],
      "payable": false,
      "stateMutability": "nonpayable",
      "type": "function"
    },
    {
      "constant": false,
      "inputs": [],
      "name": "touch",
      "outputs": [],
      "payable": false,
      "stateMutability": "nonpayable",
      "type": "function"
    },
    {
      "constant": true,
      "inputs": [],
      "name": "state",
      "outputs": [
        {
          "name": "",
          "type": "uint8"
        }
      ],
      "payable": false,
      "stateMutability": "view",
      "type": "function"
    },
    {
      "constant": true,
      "inputs": [],
      "name": "startAt",
      "outputs": [
        {
          "name": "",
          "type": "uint256"
        }
      ],
      "payable": false,
      "stateMutability": "view",
      "type": "function"
    },
    {
      "constant": false,
      "inputs": [],
      "name": "suspend",
      "outputs": [],
      "payable": false,
      "stateMutability": "nonpayable",
      "type": "function"
    },
    {
      "constant": true,
      "inputs": [],
      "name": "hardCapWei",
      "outputs": [
        {
          "name": "",
          "type": "uint256"
        }
      ],
      "payable": false,
      "stateMutability": "view",
      "type": "function"
    },
    {
      "constant": false,
      "inputs": [
        {
          "name": "newOwner",
          "type": "address"
        }
      ],
      "name": "transferOwnership",
      "outputs": [],
      "payable": false,
      "stateMutability": "nonpayable",
      "type": "function"
    },
    {
      "constant": true,
      "inputs": [],
      "name": "collectedWei",
      "outputs": [
        {
          "name": "",
          "type": "uint256"
        }
      ],
      "payable": false,
      "stateMutability": "view",
      "type": "function"
    },
    {
      "constant": true,
      "inputs": [],
      "name": "lowCapWei",
      "outputs": [
        {
          "name": "",
          "type": "uint256"
        }
      ],
      "payable": false,
      "stateMutability": "view",
      "type": "function"
    },
    {
      "constant": true,
      "inputs": [],
      "name": "token",
      "outputs": [
        {
          "name": "",
          "type": "address"
        }
      ],
      "payable": false,
      "stateMutability": "view",
      "type": "function"
    },
    {
      "inputs": [
        {
          "name": "icoToken_",
          "type": "address"
        },
        {
          "name": "lowCapWei_",
          "type": "uint256"
        },
        {
          "name": "hardCapWei_",
          "type": "uint256"
        }
      ],
      "payable": false,
      "stateMutability": "nonpayable",
      "type": "constructor"
    },
    {
      "payable": true,
      "stateMutability": "payable",
      "type": "fallback"
    },
    {
      "anonymous": false,
      "inputs": [
        {
          "indexed": false,
          "name": "icoToken",
          "type": "address"
        },
        {
          "indexed": false,
          "name": "lowCapWei",
          "type": "uint256"
        },
        {
          "indexed": false,
          "name": "hardCapWei",
          "type": "uint256"
        }
      ],
      "name": "ICOStarted",
      "type": "event"
    },
    {
      "anonymous": false,
      "inputs": [
        {
          "indexed": true,
          "name": "endAt",
          "type": "uint256"
        },
        {
          "indexed": false,
          "name": "lowCapWei",
          "type": "uint256"
        },
        {
          "indexed": false,
          "name": "hardCapWei",
          "type": "uint256"
        }
      ],
      "name": "ICOStarted",
      "type": "event"
    },
    {
      "anonymous": false,
      "inputs": [
        {
          "indexed": true,
          "name": "endAt",
          "type": "uint256"
        },
        {
          "indexed": false,
          "name": "lowCapWei",
          "type": "uint256"
        },
        {
          "indexed": false,
          "name": "hardCapWei",
          "type": "uint256"
        }
      ],
      "name": "ICOResumed",
      "type": "event"
    },
    {
      "anonymous": false,
      "inputs": [],
      "name": "ICOSuspended",
      "type": "event"
    },
    {
      "anonymous": false,
      "inputs": [],
      "name": "ICOTerminated",
      "type": "event"
    },
    {
      "anonymous": false,
      "inputs": [],
      "name": "ICONotCompleted",
      "type": "event"
    },
    {
      "anonymous": false,
      "inputs": [
        {
          "indexed": false,
          "name": "collectedWei",
          "type": "uint256"
        }
      ],
      "name": "ICOCompleted",
      "type": "event"
    },
    {
      "anonymous": false,
      "inputs": [
        {
          "indexed": true,
          "name": "from",
          "type": "address"
        },
        {
          "indexed": false,
          "name": "investedWei",
          "type": "uint256"
        },
        {
          "indexed": false,
          "name": "tokens",
          "type": "uint256"
        },
        {
          "indexed": false,
          "name": "bonusPct",
          "type": "uint8"
        }
      ],
      "name": "ICOInvestment",
      "type": "event"
    },
    {
      "anonymous": false,
      "inputs": [
        {
          "indexed": true,
          "name": "previousOwner",
          "type": "address"
        },
        {
          "indexed": true,
          "name": "newOwner",
          "type": "address"
        }
      ],
      "name": "OwnershipTransferred",
      "type": "event"
    }
  ],
  "bytecode": "0x60606040526007805460ff1916600f179055341561001c57600080fd5b604051606080610cbc83398101604052808051919060200180519190602001805160008054600160a060020a03191633600160a060020a039081169190911790915590925084161515905061007057600080fd5b60018054600160a060020a031916600160a060020a0385161760a060020a60ff0219169055600482905560058190557fd7cecbd766c52dcdc3cc15be0e45d2c81ca284f688bd940e27b45db1ca6382638383836040518084600160a060020a0316600160a060020a03168152602001838152602001828152602001935050505060405180910390a1505050610bb28061010a6000396000f3006060604052600436106100fb5763ffffffff7c0100000000000000000000000000000000000000000000000000000000600035041663046f7da281146101005780630c08bf8814610115578063281ae5581461012857806355dc288a1461014d57806371c30064146101765780637cc3ae8c146101925780638899de47146101a55780638da5cb5b146101c757806395805dad146101f6578063a55526db1461020c578063c19d93fb1461021f578063c744656514610256578063e6400bbe14610269578063e923e7071461027c578063f2fde38b1461028f578063f637b7da146102ae578063f8b2e259146102c1578063fc0c546a146102d4575b600080fd5b341561010b57600080fd5b6101136102e7565b005b341561012057600080fd5b610113610397565b341561013357600080fd5b61013b610484565b60405190815260200160405180910390f35b341561015857600080fd5b61016061048a565b60405160ff909116815260200160405180910390f35b341561018157600080fd5b610113600435602435604435610493565b341561019d57600080fd5b61013b61050b565b34156101b057600080fd5b610113600160a060020a0360043516602435610511565b34156101d257600080fd5b6101da6106f0565b604051600160a060020a03909116815260200160405180910390f35b341561020157600080fd5b6101136004356106ff565b341561021757600080fd5b6101136107bc565b341561022a57600080fd5b6102326109b7565b6040518082600581111561024257fe5b60ff16815260200191505060405180910390f35b341561026157600080fd5b61013b6109c7565b341561027457600080fd5b6101136109cd565b341561028757600080fd5b61013b610a6e565b341561029a57600080fd5b610113600160a060020a0360043516610a74565b34156102b957600080fd5b61013b610b0f565b34156102cc57600080fd5b61013b610b15565b34156102df57600080fd5b6101da610b1b565b60005433600160a060020a0390811691161461030257600080fd5b600260015460a060020a900460ff16600581111561031c57fe5b1461032657600080fd5b6001805474ff0000000000000000000000000000000000000000191660a060020a1790556003546004546005547fe01676ee5cbfdacda2a6b1aa72b3d06f5b5f436db4f829b745196a14a8f9353a919060405191825260208201526040908101905180910390a26103956107bc565b565b60005433600160a060020a039081169116146103b257600080fd5b600360015460a060020a900460ff1660058111156103cc57fe5b141580156103f25750600460015460a060020a900460ff1660058111156103ef57fe5b14155b80156104165750600560015460a060020a900460ff16600581111561041357fe5b14155b151561042157600080fd5b6001805474ff00000000000000000000000000000000000000001916740300000000000000000000000000000000000000001790557f1e2466c660fb4c22a780bb95549acaa2a7b03cca14c1dc1c82a7e36c8d5b357460405160405180910390a1565b61138881565b60075460ff1681565b60005433600160a060020a039081169116146104ae57600080fd5b600260015460a060020a900460ff1660058111156104c857fe5b146104d257600080fd5b428311156104e05760038390555b60008211156104ef5760048290555b60008111156104fe5760058190555b6105066107bc565b505050565b60035481565b60008054819033600160a060020a0390811691161461052f57600080fd5b82158015906105465750600160a060020a03841615155b801561055c5750600154600160a060020a031615155b151561056757600080fd5b61056f6107bc565b6001805460a060020a900460ff16600581111561058857fe5b14156106ea57600754600060ff909116116105a357826105d2565b6007546105d2906064906105c690869060ff90811684011663ffffffff610b2a16565b9063ffffffff610b6016565b60015490925061138883029150600160a060020a0316637277236b85836000604051602001526040517c010000000000000000000000000000000000000000000000000000000063ffffffff8516028152600160a060020a0390921660048301526024820152604401602060405180830381600087803b151561065457600080fd5b6102c65a03f1151561066557600080fd5b50505060405180515050600654610682908463ffffffff610b7716565b600655600754600160a060020a038516907f6e36893a4e5bef2f5ed1c0125b68495c13ad948e138ef22973b4528514ef5668908490849060ff16604051928352602083019190915260ff166040808301919091526060909101905180910390a26106ea6107bc565b50505050565b600054600160a060020a031681565b60005433600160a060020a0390811691161461071a57600080fd5b42811180156107405750600060015460a060020a900460ff16600581111561073e57fe5b145b151561074b57600080fd5b6003819055426002556001805474ff0000000000000000000000000000000000000000191660a060020a17905560045460055482917f0cd54aed8231a11737e8d161ec89f24c7d8707a7ccc2dd66556dbf77bf71f11a9160405191825260208201526040908101905180910390a250565b60005433600160a060020a039081169116146107d757600080fd5b6001805460a060020a900460ff1660058111156107f057fe5b141580156108165750600260015460a060020a900460ff16600581111561081357fe5b14155b1561082057610395565b60075460ff16600a1480159061083d575062093a80600254420310155b15610850576007805460ff1916600a1790555b600554600654106108cf576001805474ff0000000000000000000000000000000000000000191674050000000000000000000000000000000000000000179055426003556006547f81a5e88b00c2660f790b27221f79127ebaae2e3ffd4422e63456682041f567189060405190815260200160405180910390a1610395565b600354421061039557600454600654101561094a576001805474ff00000000000000000000000000000000000000001916740400000000000000000000000000000000000000001790557f98a1803cd1adfb4ad3bb0c3428807a3115d46cd6bed95016864944bd67c121f960405160405180910390a1610395565b6001805474ff00000000000000000000000000000000000000001916740500000000000000000000000000000000000000001790556006547f81a5e88b00c2660f790b27221f79127ebaae2e3ffd4422e63456682041f567189060405190815260200160405180910390a1565b60015460a060020a900460ff1681565b60025481565b60005433600160a060020a039081169116146109e857600080fd5b6001805460a060020a900460ff166005811115610a0157fe5b14610a0b57600080fd5b6001805474ff00000000000000000000000000000000000000001916740200000000000000000000000000000000000000001790557f05bf9ecee4a9d8d35d42deb54e912956a511544fa82392cb8c65e5010eff55d460405160405180910390a1565b60055481565b60005433600160a060020a03908116911614610a8f57600080fd5b600160a060020a0381161515610aa457600080fd5b600054600160a060020a0380831691167f8be0079c531659141344cd1fd0a4f28419497f9722a3daafe3b4186f6b6457e060405160405180910390a36000805473ffffffffffffffffffffffffffffffffffffffff1916600160a060020a0392909216919091179055565b60065481565b60045481565b600154600160a060020a031681565b600080831515610b3d5760009150610b59565b50828202828482811515610b4d57fe5b0414610b5557fe5b8091505b5092915050565b6000808284811515610b6e57fe5b04949350505050565b600082820183811015610b5557fe00a165627a7a72305820d2e9d7b04584f5625d5cf4bb75f142d73b4b653d764754c769c46daff7b8cc330029",
  "source": "pragma solidity ^0.4.18;\n\nimport './commons/SafeMath.sol';\nimport './base/BaseICO.sol';\n\n/**\n * @title OTCrit Pre-ICO smart contract.\n */\ncontract OTCPreICO is BaseICO {\n  using SafeMath for uint;\n\n  /// @dev 18 decimals for token\n  uint internal constant ONE_TOKEN = 1e18;\n\n  /// @dev 1e18 WEI == 1ETH == 5000 tokens\n  uint public constant ETH_TOKEN_EXCHANGE_RATIO = 5000;\n\n  /// @dev 15% bonus at start of Pre-ICO\n  uint8 public bonusPct = 15;\n\n  event ICOStarted(address icoToken, uint lowCapWei, uint hardCapWei);\n\n  function OTCPreICO(address icoToken_, uint lowCapWei_, uint hardCapWei_) public {\n    require(icoToken_ != address(0));\n    token = BaseICOToken(icoToken_);\n    state = State.Inactive;\n    lowCapWei = lowCapWei_;\n    hardCapWei = hardCapWei_;\n    ICOStarted(icoToken_, lowCapWei_, hardCapWei_);\n  }\n\n  /**\n   * @dev Recalculate ICO state based on current block time.\n   * Should be called periodically by ICO owner.\n   */\n  function touch() onlyOwner public {\n    if (state != State.Active && state != State.Suspended) {\n      return;\n    }\n    if (bonusPct != 10 && (block.timestamp - startAt >= 1 weeks)) {\n      bonusPct = 10; // Decrease bonus to 10%\n    }\n    if (collectedWei >= hardCapWei) {\n      state = State.Completed;\n      endAt = block.timestamp;\n      ICOCompleted(collectedWei);\n    } else if (block.timestamp >= endAt) {\n      if (collectedWei < lowCapWei) {\n        state = State.NotCompleted;\n        ICONotCompleted();\n      } else {\n        state = State.Completed;\n        ICOCompleted(collectedWei);\n      }\n    }\n  }\n\n  /**\n   * Perform investment in this ICO.\n   * @param from_ Investor address.\n   * @param wei_ Amount of invested weis\n   */\n  function onInvestment(address from_, uint wei_) onlyOwner public {\n    require(wei_ != 0 && from_ != address(0) && token != address(0));\n    touch();\n    if (state == State.Active) {\n      // todo rounding errors?\n      uint iwei = bonusPct > 0 ? wei_.mul(100 + bonusPct).div(100) : wei_;\n      uint itokens = iwei * ETH_TOKEN_EXCHANGE_RATIO;\n      token.icoInvestment(from_, itokens); // Transfer tokens to investor\n      collectedWei = collectedWei.add(wei_);\n      ICOInvestment(from_, iwei, itokens, bonusPct);\n      touch();\n    }\n  }\n\n  /**\n   * Disable direct payments\n   */\n  function() external payable {\n    revert();\n  }\n}",
  "sourcePath": "/home/adam/Projects/fl/otcrit-token-service/otcrit-contracts/eth/contracts/OTCPreICO.sol",
  "compiler": {
    "name": "solc",
    "version": "0.4.18+commit.9cf6e910.Emscripten.clang"
  },
  "schemaVersion": "1.0.1",
  "updatedAt": "2018-01-22T05:42:38.130Z"
}