{
  "contractName": "OTCPreICO",
  "abi": [
    {
      "constant": false,
      "inputs": [],
      "name": "resume",
      "outputs": [],
      "payable": false,
      "stateMutability": "nonpayable",
      "type": "function"
    },
    {
      "constant": false,
      "inputs": [],
      "name": "terminate",
      "outputs": [],
      "payable": false,
      "stateMutability": "nonpayable",
      "type": "function"
    },
    {
      "constant": true,
      "inputs": [],
      "name": "ETH_TOKEN_EXCHANGE_RATIO",
      "outputs": [
        {
          "name": "",
          "type": "uint256"
        }
      ],
      "payable": false,
      "stateMutability": "view",
      "type": "function"
    },
    {
      "constant": true,
      "inputs": [],
      "name": "hardCapTxWei",
      "outputs": [
        {
          "name": "",
          "type": "uint256"
        }
      ],
      "payable": false,
      "stateMutability": "view",
      "type": "function"
    },
    {
      "constant": true,
      "inputs": [],
      "name": "lowCapTxWei",
      "outputs": [
        {
          "name": "",
          "type": "uint256"
        }
      ],
      "payable": false,
      "stateMutability": "view",
      "type": "function"
    },
    {
      "constant": true,
      "inputs": [],
      "name": "whitelistEnabled",
      "outputs": [
        {
          "name": "",
          "type": "bool"
        }
      ],
      "payable": false,
      "stateMutability": "view",
      "type": "function"
    },
    {
      "constant": true,
      "inputs": [],
      "name": "teamWallet",
      "outputs": [
        {
          "name": "",
          "type": "address"
        }
      ],
      "payable": false,
      "stateMutability": "view",
      "type": "function"
    },
    {
      "constant": true,
      "inputs": [],
      "name": "endAt",
      "outputs": [
        {
          "name": "",
          "type": "uint256"
        }
      ],
      "payable": false,
      "stateMutability": "view",
      "type": "function"
    },
    {
      "constant": true,
      "inputs": [],
      "name": "owner",
      "outputs": [
        {
          "name": "",
          "type": "address"
        }
      ],
      "payable": false,
      "stateMutability": "view",
      "type": "function"
    },
    {
      "constant": false,
      "inputs": [
        {
          "name": "endAt_",
          "type": "uint256"
        }
      ],
      "name": "start",
      "outputs": [],
      "payable": false,
      "stateMutability": "nonpayable",
      "type": "function"
    },
    {
      "constant": false,
      "inputs": [
        {
          "name": "address_",
          "type": "address"
        }
      ],
      "name": "whitelist",
      "outputs": [],
      "payable": false,
      "stateMutability": "nonpayable",
      "type": "function"
    },
    {
      "constant": false,
      "inputs": [],
      "name": "touch",
      "outputs": [],
      "payable": false,
      "stateMutability": "nonpayable",
      "type": "function"
    },
    {
      "constant": true,
      "inputs": [],
      "name": "state",
      "outputs": [
        {
          "name": "",
          "type": "uint8"
        }
      ],
      "payable": false,
      "stateMutability": "view",
      "type": "function"
    },
    {
      "constant": true,
      "inputs": [],
      "name": "startAt",
      "outputs": [
        {
          "name": "",
          "type": "uint256"
        }
      ],
      "payable": false,
      "stateMutability": "view",
      "type": "function"
    },
    {
      "constant": false,
      "inputs": [],
      "name": "enableWhitelist",
      "outputs": [],
      "payable": false,
      "stateMutability": "nonpayable",
      "type": "function"
    },
    {
      "constant": false,
      "inputs": [],
      "name": "buyTokens",
      "outputs": [],
      "payable": true,
      "stateMutability": "payable",
      "type": "function"
    },
    {
      "constant": false,
      "inputs": [],
      "name": "disableWhitelist",
      "outputs": [],
      "payable": false,
      "stateMutability": "nonpayable",
      "type": "function"
    },
    {
      "constant": true,
      "inputs": [
        {
          "name": "address_",
          "type": "address"
        }
      ],
      "name": "whitelisted",
      "outputs": [
        {
          "name": "",
          "type": "bool"
        }
      ],
      "payable": false,
      "stateMutability": "view",
      "type": "function"
    },
    {
      "constant": false,
      "inputs": [
        {
          "name": "endAt_",
          "type": "uint256"
        },
        {
          "name": "lowCapWei_",
          "type": "uint256"
        },
        {
          "name": "hardCapWei_",
          "type": "uint256"
        },
        {
          "name": "lowCapTxWei_",
          "type": "uint256"
        },
        {
          "name": "hardCapTxWei_",
          "type": "uint256"
        }
      ],
      "name": "tune",
      "outputs": [],
      "payable": false,
      "stateMutability": "nonpayable",
      "type": "function"
    },
    {
      "constant": false,
      "inputs": [],
      "name": "suspend",
      "outputs": [],
      "payable": false,
      "stateMutability": "nonpayable",
      "type": "function"
    },
    {
      "constant": true,
      "inputs": [],
      "name": "hardCapWei",
      "outputs": [
        {
          "name": "",
          "type": "uint256"
        }
      ],
      "payable": false,
      "stateMutability": "view",
      "type": "function"
    },
    {
      "constant": false,
      "inputs": [
        {
          "name": "newOwner",
          "type": "address"
        }
      ],
      "name": "transferOwnership",
      "outputs": [],
      "payable": false,
      "stateMutability": "nonpayable",
      "type": "function"
    },
    {
      "constant": true,
      "inputs": [],
      "name": "collectedWei",
      "outputs": [
        {
          "name": "",
          "type": "uint256"
        }
      ],
      "payable": false,
      "stateMutability": "view",
      "type": "function"
    },
    {
      "constant": true,
      "inputs": [],
      "name": "lowCapWei",
      "outputs": [
        {
          "name": "",
          "type": "uint256"
        }
      ],
      "payable": false,
      "stateMutability": "view",
      "type": "function"
    },
    {
      "constant": false,
      "inputs": [
        {
          "name": "address_",
          "type": "address"
        }
      ],
      "name": "blacklist",
      "outputs": [],
      "payable": false,
      "stateMutability": "nonpayable",
      "type": "function"
    },
    {
      "constant": true,
      "inputs": [],
      "name": "token",
      "outputs": [
        {
          "name": "",
          "type": "address"
        }
      ],
      "payable": false,
      "stateMutability": "view",
      "type": "function"
    },
    {
      "inputs": [
        {
          "name": "icoToken_",
          "type": "address"
        },
        {
          "name": "teamWallet_",
          "type": "address"
        },
        {
          "name": "lowCapWei_",
          "type": "uint256"
        },
        {
          "name": "hardCapWei_",
          "type": "uint256"
        },
        {
          "name": "lowCapTxWei_",
          "type": "uint256"
        },
        {
          "name": "hardCapTxWei_",
          "type": "uint256"
        }
      ],
      "payable": false,
      "stateMutability": "nonpayable",
      "type": "constructor"
    },
    {
      "payable": true,
      "stateMutability": "payable",
      "type": "fallback"
    },
    {
      "anonymous": false,
      "inputs": [
        {
          "indexed": true,
          "name": "endAt",
          "type": "uint256"
        },
        {
          "indexed": false,
          "name": "lowCapWei",
          "type": "uint256"
        },
        {
          "indexed": false,
          "name": "hardCapWei",
          "type": "uint256"
        },
        {
          "indexed": false,
          "name": "lowCapTxWei",
          "type": "uint256"
        },
        {
          "indexed": false,
          "name": "hardCapTxWei",
          "type": "uint256"
        }
      ],
      "name": "ICOStarted",
      "type": "event"
    },
    {
      "anonymous": false,
      "inputs": [
        {
          "indexed": true,
          "name": "endAt",
          "type": "uint256"
        },
        {
          "indexed": false,
          "name": "lowCapWei",
          "type": "uint256"
        },
        {
          "indexed": false,
          "name": "hardCapWei",
          "type": "uint256"
        },
        {
          "indexed": false,
          "name": "lowCapTxWei",
          "type": "uint256"
        },
        {
          "indexed": false,
          "name": "hardCapTxWei",
          "type": "uint256"
        }
      ],
      "name": "ICOResumed",
      "type": "event"
    },
    {
      "anonymous": false,
      "inputs": [],
      "name": "ICOSuspended",
      "type": "event"
    },
    {
      "anonymous": false,
      "inputs": [],
      "name": "ICOTerminated",
      "type": "event"
    },
    {
      "anonymous": false,
      "inputs": [],
      "name": "ICONotCompleted",
      "type": "event"
    },
    {
      "anonymous": false,
      "inputs": [
        {
          "indexed": false,
          "name": "collectedWei",
          "type": "uint256"
        }
      ],
      "name": "ICOCompleted",
      "type": "event"
    },
    {
      "anonymous": false,
      "inputs": [
        {
          "indexed": true,
          "name": "from",
          "type": "address"
        },
        {
          "indexed": false,
          "name": "investedWei",
          "type": "uint256"
        },
        {
          "indexed": false,
          "name": "tokens",
          "type": "uint256"
        },
        {
          "indexed": false,
          "name": "bonusPct",
          "type": "uint8"
        }
      ],
      "name": "ICOInvestment",
      "type": "event"
    },
    {
      "anonymous": false,
      "inputs": [
        {
          "indexed": true,
          "name": "addr",
          "type": "address"
        }
      ],
      "name": "ICOWhitelisted",
      "type": "event"
    },
    {
      "anonymous": false,
      "inputs": [
        {
          "indexed": true,
          "name": "addr",
          "type": "address"
        }
      ],
      "name": "ICOBlacklisted",
      "type": "event"
    },
    {
      "anonymous": false,
      "inputs": [
        {
          "indexed": true,
          "name": "previousOwner",
          "type": "address"
        },
        {
          "indexed": true,
          "name": "newOwner",
          "type": "address"
        }
      ],
      "name": "OwnershipTransferred",
      "type": "event"
    }
  ],
  "bytecode": "0x60606040526009805460a060020a60ff02191674010000000000000000000000000000000000000000179055341561003657600080fd5b60405160c080610fa983398101604052808051919060200180519190602001805191906020018051919060200180519190602001805160008054600160a060020a03191633600160a060020a0390811691909117909155909250871615801591506100a95750600160a060020a03851615155b15156100b457600080fd5b6001805460098054600160a060020a03988916600160a060020a03199182161790915597909616969095169590951760a060020a60ff021916909355600491909155600555600655600755610e9b8061010e6000396000f3006060604052600436106101535763ffffffff7c0100000000000000000000000000000000000000000000000000000000600035041663046f7da2811461015d5780630c08bf8814610170578063281ae55814610183578063387ed59b146101a857806338d2b172146101bb57806351fb012d146101ce57806359927044146101f55780637cc3ae8c146102245780638da5cb5b1461023757806395805dad1461024a5780639b19251a14610260578063a55526db1461027f578063c19d93fb14610292578063c7446565146102c9578063cdfb2b4e146102dc578063d0febe4c14610153578063d6b0f484146102ef578063d936547e14610302578063e18b170e14610321578063e6400bbe14610343578063e923e70714610356578063f2fde38b14610369578063f637b7da14610388578063f8b2e2591461039b578063f9f92be4146103ae578063fc0c546a146103cd575b61015b6103e0565b005b341561016857600080fd5b61015b6105c8565b341561017b57600080fd5b61015b610694565b341561018e57600080fd5b610196610781565b60405190815260200160405180910390f35b34156101b357600080fd5b610196610787565b34156101c657600080fd5b61019661078d565b34156101d957600080fd5b6101e1610793565b604051901515815260200160405180910390f35b341561020057600080fd5b6102086107a3565b604051600160a060020a03909116815260200160405180910390f35b341561022f57600080fd5b6101966107b2565b341561024257600080fd5b6102086107b8565b341561025557600080fd5b61015b6004356107c7565b341561026b57600080fd5b61015b600160a060020a03600435166108a2565b341561028a57600080fd5b61015b610910565b341561029d57600080fd5b6102a5610ac0565b604051808260058111156102b557fe5b60ff16815260200191505060405180910390f35b34156102d457600080fd5b610196610ad0565b34156102e757600080fd5b61015b610ad6565b34156102fa57600080fd5b61015b610afc565b341561030d57600080fd5b6101e1600160a060020a0360043516610b1c565b341561032c57600080fd5b61015b600435602435604435606435608435610b5c565b341561034e57600080fd5b61015b610c17565b341561036157600080fd5b610196610cb8565b341561037457600080fd5b61015b600160a060020a0360043516610cbe565b341561039357600080fd5b610196610d59565b34156103a657600080fd5b610196610d5f565b34156103b957600080fd5b61015b600160a060020a0360043516610d65565b34156103d857600080fd5b610208610dd0565b60008080806001805460a060020a900460ff1660058111156103fe57fe5b14801561040d57506003544211155b801561041b57506006543410155b801561042957506007543411155b801561043b5750600554346008540111155b801561044b575061044b33610b1c565b151561045657600080fd5b34935062093a806002544203101561046f57600f610472565b600a5b925060008360ff161161048557836104ab565b6104ab606461049f8660ff8784011663ffffffff610ddf16565b9063ffffffff610e1516565b60015490925061138883029150600160a060020a0316637277236b33836000604051602001526040517c010000000000000000000000000000000000000000000000000000000063ffffffff8516028152600160a060020a0390921660048301526024820152604401602060405180830381600087803b151561052d57600080fd5b6102c65a03f1151561053e57600080fd5b5050506040518051505060085461055b908563ffffffff610e2c16565b600855600160a060020a0333167f6e36893a4e5bef2f5ed1c0125b68495c13ad948e138ef22973b4528514ef5668858386604051928352602083019190915260ff166040808301919091526060909101905180910390a26105ba610e3b565b6105c2610910565b50505050565b60005433600160a060020a039081169116146105e357600080fd5b600260015460a060020a900460ff1660058111156105fd57fe5b1461060757600080fd5b60018054819074ff0000000000000000000000000000000000000000191660a060020a8202179055506003547f6bf99bbfcd93ccaeb69bf505b279813e6ea9427a02f344aebeca8e4b3e10cc466004546005546006546007546040518085815260200184815260200183815260200182815260200194505050505060405180910390a2610692610910565b565b60005433600160a060020a039081169116146106af57600080fd5b600360015460a060020a900460ff1660058111156106c957fe5b141580156106ef5750600460015460a060020a900460ff1660058111156106ec57fe5b14155b80156107135750600560015460a060020a900460ff16600581111561071057fe5b14155b151561071e57600080fd5b6001805474ff00000000000000000000000000000000000000001916740300000000000000000000000000000000000000001790557f1e2466c660fb4c22a780bb95549acaa2a7b03cca14c1dc1c82a7e36c8d5b357460405160405180910390a1565b61138881565b60075481565b60065481565b60095460a060020a900460ff1681565b600954600160a060020a031681565b60035481565b600054600160a060020a031681565b60005433600160a060020a039081169116146107e257600080fd5b42811180156108085750600060015460a060020a900460ff16600581111561080657fe5b145b151561081357600080fd5b60038190554260025560018054819074ff0000000000000000000000000000000000000000191660a060020a8202179055506003547f87e7dc5f7915642959de5fa47a1cb6307b5107406d5506813504ed14a7a30a516004546005546006546007546040518085815260200184815260200183815260200182815260200194505050505060405180910390a250565b60005433600160a060020a039081169116146108bd57600080fd5b600160a060020a0381166000818152600a602052604090819020805460ff191660011790557fd49ab244ff4dcab14bc41675d0476050d6f212b0856bb84100e1d474d6ec996b905160405180910390a250565b6001805460a060020a900460ff16600581111561092957fe5b1415801561094f5750600260015460a060020a900460ff16600581111561094c57fe5b14155b1561095957610692565b600554600854106109d8576001805474ff0000000000000000000000000000000000000000191674050000000000000000000000000000000000000000179055426003556008547f81a5e88b00c2660f790b27221f79127ebaae2e3ffd4422e63456682041f567189060405190815260200160405180910390a1610692565b6003544210610692576004546008541015610a53576001805474ff00000000000000000000000000000000000000001916740400000000000000000000000000000000000000001790557f98a1803cd1adfb4ad3bb0c3428807a3115d46cd6bed95016864944bd67c121f960405160405180910390a1610692565b6001805474ff00000000000000000000000000000000000000001916740500000000000000000000000000000000000000001790556008547f81a5e88b00c2660f790b27221f79127ebaae2e3ffd4422e63456682041f567189060405190815260200160405180910390a1565b60015460a060020a900460ff1681565b60025481565b6009805474ff0000000000000000000000000000000000000000191660a060020a179055565b6009805474ff000000000000000000000000000000000000000019169055565b60095460009060a060020a900460ff1615610b535750600160a060020a0381166000908152600a602052604090205460ff16610b57565b5060015b919050565b60005433600160a060020a03908116911614610b7757600080fd5b600260015460a060020a900460ff166005811115610b9157fe5b14610b9b57600080fd5b42851115610ba95760038590555b6000841115610bb85760048490555b6000831115610bc75760058390555b6000821115610bd65760068290555b6000811115610be55760078190555b60055460045411158015610bfd575060075460065411155b1515610c0857600080fd5b610c10610910565b5050505050565b60005433600160a060020a03908116911614610c3257600080fd5b6001805460a060020a900460ff166005811115610c4b57fe5b14610c5557600080fd5b6001805474ff00000000000000000000000000000000000000001916740200000000000000000000000000000000000000001790557f05bf9ecee4a9d8d35d42deb54e912956a511544fa82392cb8c65e5010eff55d460405160405180910390a1565b60055481565b60005433600160a060020a03908116911614610cd957600080fd5b600160a060020a0381161515610cee57600080fd5b600054600160a060020a0380831691167f8be0079c531659141344cd1fd0a4f28419497f9722a3daafe3b4186f6b6457e060405160405180910390a36000805473ffffffffffffffffffffffffffffffffffffffff1916600160a060020a0392909216919091179055565b60085481565b60045481565b60005433600160a060020a03908116911614610d8057600080fd5b600160a060020a0381166000818152600a602052604090819020805460ff191690557ff0e86f93f7127c0fbbe66c81d3f9ffc791a274118b803ecaa8843f4f18c5978f905160405180910390a250565b600154600160a060020a031681565b600080831515610df25760009150610e0e565b50828202828482811515610e0257fe5b0414610e0a57fe5b8091505b5092915050565b6000808284811515610e2357fe5b04949350505050565b600082820183811015610e0a57fe5b600954600160a060020a03163480156108fc0290604051600060405180830381858888f19350505050151561069257600080fd00a165627a7a7230582081b47319e3680f6bead110a84a1e05d098a0ad70a0483bc23327f0546abdca530029",
  "source": "pragma solidity ^0.4.18;\n\nimport './commons/SafeMath.sol';\nimport './base/BaseICO.sol';\n\n/**\n * @title OTCrit Pre-ICO smart contract.\n */\ncontract OTCPreICO is BaseICO {\n  using SafeMath for uint;\n\n  /// @dev 18 decimals for token\n  uint internal constant ONE_TOKEN = 1e18;\n\n  /// @dev 1e18 WEI == 1ETH == 5000 tokens\n  uint public constant ETH_TOKEN_EXCHANGE_RATIO = 5000;\n\n\n  function OTCPreICO(address icoToken_,\n                     address teamWallet_,\n                     uint lowCapWei_,\n                     uint hardCapWei_,\n                     uint lowCapTxWei_,\n                     uint hardCapTxWei_) public {\n    require(icoToken_ != address(0) && teamWallet_ != address(0));\n    token = BaseICOToken(icoToken_);\n    teamWallet = teamWallet_;\n    state = State.Inactive;\n    lowCapWei = lowCapWei_;\n    hardCapWei = hardCapWei_;\n    lowCapTxWei = lowCapTxWei_;\n    hardCapTxWei = hardCapTxWei_;\n  }\n\n  /**\n   * @dev Recalculate ICO state based on current block time.\n   * Should be called periodically by ICO owner.\n   */\n  function touch() public {\n    if (state != State.Active && state != State.Suspended) {\n      return;\n    }\n    if (collectedWei >= hardCapWei) {\n      state = State.Completed;\n      endAt = block.timestamp;\n      ICOCompleted(collectedWei);\n    } else if (block.timestamp >= endAt) {\n      if (collectedWei < lowCapWei) {\n        state = State.NotCompleted;\n        ICONotCompleted();\n      } else {\n        state = State.Completed;\n        ICOCompleted(collectedWei);\n      }\n    }\n  }\n\n  function buyTokens() public payable {\n    require(state == State.Active &&\n            block.timestamp <= endAt &&\n            msg.value >= lowCapTxWei &&\n            msg.value <= hardCapTxWei &&\n            collectedWei + msg.value <= hardCapWei &&\n            whitelisted(msg.sender) );\n    uint amountWei = msg.value;\n    uint8 bonus = (block.timestamp - startAt >= 1 weeks) ? 10 : 15;\n    uint iwei = bonus > 0 ? amountWei.mul(100 + bonus).div(100) : amountWei;\n    uint itokens = iwei * ETH_TOKEN_EXCHANGE_RATIO;\n    token.icoInvestment(msg.sender, itokens); // Transfer tokens to investor\n    collectedWei = collectedWei.add(amountWei);\n    ICOInvestment(msg.sender, amountWei, itokens, bonus);\n    forwardFunds();\n    touch();\n  }\n\n  /**\n   * Accept direct payments\n   */\n  function() external payable {\n    buyTokens();\n  }\n}",
  "sourcePath": "/home/adam/Projects/fl/otcrit-token-service/otcrit-contracts/eth/contracts/OTCPreICO.sol",
  "compiler": {
    "name": "solc",
    "version": "0.4.18+commit.9cf6e910.Emscripten.clang"
  },
  "schemaVersion": "1.0.1",
  "updatedAt": "2018-01-24T06:40:57.371Z"
}