{
  "contractName": "OTCPreICO",
  "abi": [
    {
      "constant": false,
      "inputs": [],
      "name": "resume",
      "outputs": [],
      "payable": false,
      "stateMutability": "nonpayable",
      "type": "function"
    },
    {
      "constant": false,
      "inputs": [],
      "name": "terminate",
      "outputs": [],
      "payable": false,
      "stateMutability": "nonpayable",
      "type": "function"
    },
    {
      "constant": true,
      "inputs": [],
      "name": "ETH_TOKEN_EXCHANGE_RATIO",
      "outputs": [
        {
          "name": "",
          "type": "uint256"
        }
      ],
      "payable": false,
      "stateMutability": "view",
      "type": "function"
    },
    {
      "constant": true,
      "inputs": [],
      "name": "hardCapTxWei",
      "outputs": [
        {
          "name": "",
          "type": "uint256"
        }
      ],
      "payable": false,
      "stateMutability": "view",
      "type": "function"
    },
    {
      "constant": true,
      "inputs": [],
      "name": "lowCapTxWei",
      "outputs": [
        {
          "name": "",
          "type": "uint256"
        }
      ],
      "payable": false,
      "stateMutability": "view",
      "type": "function"
    },
    {
      "constant": true,
      "inputs": [],
      "name": "teamWallet",
      "outputs": [
        {
          "name": "",
          "type": "address"
        }
      ],
      "payable": false,
      "stateMutability": "view",
      "type": "function"
    },
    {
      "constant": true,
      "inputs": [],
      "name": "endAt",
      "outputs": [
        {
          "name": "",
          "type": "uint256"
        }
      ],
      "payable": false,
      "stateMutability": "view",
      "type": "function"
    },
    {
      "constant": true,
      "inputs": [],
      "name": "owner",
      "outputs": [
        {
          "name": "",
          "type": "address"
        }
      ],
      "payable": false,
      "stateMutability": "view",
      "type": "function"
    },
    {
      "constant": false,
      "inputs": [
        {
          "name": "endAt_",
          "type": "uint256"
        }
      ],
      "name": "start",
      "outputs": [],
      "payable": false,
      "stateMutability": "nonpayable",
      "type": "function"
    },
    {
      "constant": false,
      "inputs": [
        {
          "name": "address_",
          "type": "address"
        }
      ],
      "name": "whitelist",
      "outputs": [],
      "payable": false,
      "stateMutability": "nonpayable",
      "type": "function"
    },
    {
      "constant": false,
      "inputs": [],
      "name": "touch",
      "outputs": [],
      "payable": false,
      "stateMutability": "nonpayable",
      "type": "function"
    },
    {
      "constant": true,
      "inputs": [],
      "name": "state",
      "outputs": [
        {
          "name": "",
          "type": "uint8"
        }
      ],
      "payable": false,
      "stateMutability": "view",
      "type": "function"
    },
    {
      "constant": true,
      "inputs": [],
      "name": "startAt",
      "outputs": [
        {
          "name": "",
          "type": "uint256"
        }
      ],
      "payable": false,
      "stateMutability": "view",
      "type": "function"
    },
    {
      "constant": false,
      "inputs": [],
      "name": "buyTokens",
      "outputs": [],
      "payable": true,
      "stateMutability": "payable",
      "type": "function"
    },
    {
      "constant": true,
      "inputs": [
        {
          "name": "address_",
          "type": "address"
        }
      ],
      "name": "whitelisted",
      "outputs": [
        {
          "name": "",
          "type": "bool"
        }
      ],
      "payable": false,
      "stateMutability": "view",
      "type": "function"
    },
    {
      "constant": false,
      "inputs": [
        {
          "name": "endAt_",
          "type": "uint256"
        },
        {
          "name": "lowCapWei_",
          "type": "uint256"
        },
        {
          "name": "hardCapWei_",
          "type": "uint256"
        },
        {
          "name": "lowCapTxWei_",
          "type": "uint256"
        },
        {
          "name": "hardCapTxWei_",
          "type": "uint256"
        }
      ],
      "name": "tune",
      "outputs": [],
      "payable": false,
      "stateMutability": "nonpayable",
      "type": "function"
    },
    {
      "constant": false,
      "inputs": [],
      "name": "suspend",
      "outputs": [],
      "payable": false,
      "stateMutability": "nonpayable",
      "type": "function"
    },
    {
      "constant": true,
      "inputs": [],
      "name": "hardCapWei",
      "outputs": [
        {
          "name": "",
          "type": "uint256"
        }
      ],
      "payable": false,
      "stateMutability": "view",
      "type": "function"
    },
    {
      "constant": false,
      "inputs": [
        {
          "name": "newOwner",
          "type": "address"
        }
      ],
      "name": "transferOwnership",
      "outputs": [],
      "payable": false,
      "stateMutability": "nonpayable",
      "type": "function"
    },
    {
      "constant": true,
      "inputs": [],
      "name": "collectedWei",
      "outputs": [
        {
          "name": "",
          "type": "uint256"
        }
      ],
      "payable": false,
      "stateMutability": "view",
      "type": "function"
    },
    {
      "constant": true,
      "inputs": [],
      "name": "lowCapWei",
      "outputs": [
        {
          "name": "",
          "type": "uint256"
        }
      ],
      "payable": false,
      "stateMutability": "view",
      "type": "function"
    },
    {
      "constant": false,
      "inputs": [
        {
          "name": "address_",
          "type": "address"
        }
      ],
      "name": "blacklist",
      "outputs": [],
      "payable": false,
      "stateMutability": "nonpayable",
      "type": "function"
    },
    {
      "constant": true,
      "inputs": [],
      "name": "token",
      "outputs": [
        {
          "name": "",
          "type": "address"
        }
      ],
      "payable": false,
      "stateMutability": "view",
      "type": "function"
    },
    {
      "inputs": [
        {
          "name": "icoToken_",
          "type": "address"
        },
        {
          "name": "teamWallet_",
          "type": "address"
        },
        {
          "name": "lowCapWei_",
          "type": "uint256"
        },
        {
          "name": "hardCapWei_",
          "type": "uint256"
        },
        {
          "name": "lowCapTxWei_",
          "type": "uint256"
        },
        {
          "name": "hardCapTxWei_",
          "type": "uint256"
        }
      ],
      "payable": false,
      "stateMutability": "nonpayable",
      "type": "constructor"
    },
    {
      "payable": true,
      "stateMutability": "payable",
      "type": "fallback"
    },
    {
      "anonymous": false,
      "inputs": [
        {
          "indexed": true,
          "name": "endAt",
          "type": "uint256"
        },
        {
          "indexed": false,
          "name": "lowCapWei",
          "type": "uint256"
        },
        {
          "indexed": false,
          "name": "hardCapWei",
          "type": "uint256"
        },
        {
          "indexed": false,
          "name": "lowCapTxWei",
          "type": "uint256"
        },
        {
          "indexed": false,
          "name": "hardCapTxWei",
          "type": "uint256"
        }
      ],
      "name": "ICOStarted",
      "type": "event"
    },
    {
      "anonymous": false,
      "inputs": [
        {
          "indexed": true,
          "name": "endAt",
          "type": "uint256"
        },
        {
          "indexed": false,
          "name": "lowCapWei",
          "type": "uint256"
        },
        {
          "indexed": false,
          "name": "hardCapWei",
          "type": "uint256"
        },
        {
          "indexed": false,
          "name": "lowCapTxWei",
          "type": "uint256"
        },
        {
          "indexed": false,
          "name": "hardCapTxWei",
          "type": "uint256"
        }
      ],
      "name": "ICOResumed",
      "type": "event"
    },
    {
      "anonymous": false,
      "inputs": [],
      "name": "ICOSuspended",
      "type": "event"
    },
    {
      "anonymous": false,
      "inputs": [],
      "name": "ICOTerminated",
      "type": "event"
    },
    {
      "anonymous": false,
      "inputs": [],
      "name": "ICONotCompleted",
      "type": "event"
    },
    {
      "anonymous": false,
      "inputs": [
        {
          "indexed": false,
          "name": "collectedWei",
          "type": "uint256"
        }
      ],
      "name": "ICOCompleted",
      "type": "event"
    },
    {
      "anonymous": false,
      "inputs": [
        {
          "indexed": true,
          "name": "from",
          "type": "address"
        },
        {
          "indexed": false,
          "name": "investedWei",
          "type": "uint256"
        },
        {
          "indexed": false,
          "name": "tokens",
          "type": "uint256"
        },
        {
          "indexed": false,
          "name": "bonusPct",
          "type": "uint8"
        }
      ],
      "name": "ICOInvestment",
      "type": "event"
    },
    {
      "anonymous": false,
      "inputs": [
        {
          "indexed": true,
          "name": "addr",
          "type": "address"
        }
      ],
      "name": "ICOWhitelisted",
      "type": "event"
    },
    {
      "anonymous": false,
      "inputs": [
        {
          "indexed": true,
          "name": "addr",
          "type": "address"
        }
      ],
      "name": "ICOBlacklisted",
      "type": "event"
    },
    {
      "anonymous": false,
      "inputs": [
        {
          "indexed": true,
          "name": "previousOwner",
          "type": "address"
        },
        {
          "indexed": true,
          "name": "newOwner",
          "type": "address"
        }
      ],
      "name": "OwnershipTransferred",
      "type": "event"
    }
  ],
  "bytecode": "0x6060604052341561000f57600080fd5b60405160c080610eb083398101604052808051919060200180519190602001805191906020018051919060200180519190602001805160008054600160a060020a03191633600160a060020a0390811691909117909155909250871615801591506100825750600160a060020a03851615155b151561008d57600080fd5b6001805460098054600160a060020a03988916600160a060020a03199182161790915597909616969095169590951760a060020a60ff021916909355600491909155600555600655600755610dc9806100e76000396000f3006060604052600436106101325763ffffffff7c0100000000000000000000000000000000000000000000000000000000600035041663046f7da2811461013c5780630c08bf881461014f578063281ae55814610162578063387ed59b1461018757806338d2b1721461019a57806359927044146101ad5780637cc3ae8c146101dc5780638da5cb5b146101ef57806395805dad146102025780639b19251a14610218578063a55526db14610237578063c19d93fb1461024a578063c744656514610281578063d0febe4c14610132578063d936547e14610294578063e18b170e146102c7578063e6400bbe146102e9578063e923e707146102fc578063f2fde38b1461030f578063f637b7da1461032e578063f8b2e25914610341578063f9f92be414610354578063fc0c546a14610373575b61013a610386565b005b341561014757600080fd5b61013a61056e565b341561015a57600080fd5b61013a61063a565b341561016d57600080fd5b610175610727565b60405190815260200160405180910390f35b341561019257600080fd5b61017561072d565b34156101a557600080fd5b610175610733565b34156101b857600080fd5b6101c0610739565b604051600160a060020a03909116815260200160405180910390f35b34156101e757600080fd5b610175610748565b34156101fa57600080fd5b6101c061074e565b341561020d57600080fd5b61013a60043561075d565b341561022357600080fd5b61013a600160a060020a0360043516610838565b341561024257600080fd5b61013a6108a6565b341561025557600080fd5b61025d610a56565b6040518082600581111561026d57fe5b60ff16815260200191505060405180910390f35b341561028c57600080fd5b610175610a66565b341561029f57600080fd5b6102b3600160a060020a0360043516610a6c565b604051901515815260200160405180910390f35b34156102d257600080fd5b61013a600435602435604435606435608435610a8a565b34156102f457600080fd5b61013a610b45565b341561030757600080fd5b610175610be6565b341561031a57600080fd5b61013a600160a060020a0360043516610bec565b341561033957600080fd5b610175610c87565b341561034c57600080fd5b610175610c8d565b341561035f57600080fd5b61013a600160a060020a0360043516610c93565b341561037e57600080fd5b6101c0610cfe565b60008080806001805460a060020a900460ff1660058111156103a457fe5b1480156103b357506003544211155b80156103c157506006543410155b80156103cf57506007543411155b80156103e15750600554346008540111155b80156103f157506103f133610a6c565b15156103fc57600080fd5b34935062093a806002544203101561041557600f610418565b600a5b925060008360ff161161042b5783610451565b61045160646104458660ff8784011663ffffffff610d0d16565b9063ffffffff610d4316565b60015490925061138883029150600160a060020a0316637277236b33836000604051602001526040517c010000000000000000000000000000000000000000000000000000000063ffffffff8516028152600160a060020a0390921660048301526024820152604401602060405180830381600087803b15156104d357600080fd5b6102c65a03f115156104e457600080fd5b50505060405180515050600854610501908563ffffffff610d5a16565b600855600160a060020a0333167f6e36893a4e5bef2f5ed1c0125b68495c13ad948e138ef22973b4528514ef5668858386604051928352602083019190915260ff166040808301919091526060909101905180910390a2610560610d69565b6105686108a6565b50505050565b60005433600160a060020a0390811691161461058957600080fd5b600260015460a060020a900460ff1660058111156105a357fe5b146105ad57600080fd5b60018054819074ff0000000000000000000000000000000000000000191660a060020a8202179055506003547f6bf99bbfcd93ccaeb69bf505b279813e6ea9427a02f344aebeca8e4b3e10cc466004546005546006546007546040518085815260200184815260200183815260200182815260200194505050505060405180910390a26106386108a6565b565b60005433600160a060020a0390811691161461065557600080fd5b600360015460a060020a900460ff16600581111561066f57fe5b141580156106955750600460015460a060020a900460ff16600581111561069257fe5b14155b80156106b95750600560015460a060020a900460ff1660058111156106b657fe5b14155b15156106c457600080fd5b6001805474ff00000000000000000000000000000000000000001916740300000000000000000000000000000000000000001790557f1e2466c660fb4c22a780bb95549acaa2a7b03cca14c1dc1c82a7e36c8d5b357460405160405180910390a1565b61138881565b60075481565b60065481565b600954600160a060020a031681565b60035481565b600054600160a060020a031681565b60005433600160a060020a0390811691161461077857600080fd5b428111801561079e5750600060015460a060020a900460ff16600581111561079c57fe5b145b15156107a957600080fd5b60038190554260025560018054819074ff0000000000000000000000000000000000000000191660a060020a8202179055506003547f87e7dc5f7915642959de5fa47a1cb6307b5107406d5506813504ed14a7a30a516004546005546006546007546040518085815260200184815260200183815260200182815260200194505050505060405180910390a250565b60005433600160a060020a0390811691161461085357600080fd5b600160a060020a0381166000818152600a602052604090819020805460ff191660011790557fd49ab244ff4dcab14bc41675d0476050d6f212b0856bb84100e1d474d6ec996b905160405180910390a250565b6001805460a060020a900460ff1660058111156108bf57fe5b141580156108e55750600260015460a060020a900460ff1660058111156108e257fe5b14155b156108ef57610638565b6005546008541061096e576001805474ff0000000000000000000000000000000000000000191674050000000000000000000000000000000000000000179055426003556008547f81a5e88b00c2660f790b27221f79127ebaae2e3ffd4422e63456682041f567189060405190815260200160405180910390a1610638565b60035442106106385760045460085410156109e9576001805474ff00000000000000000000000000000000000000001916740400000000000000000000000000000000000000001790557f98a1803cd1adfb4ad3bb0c3428807a3115d46cd6bed95016864944bd67c121f960405160405180910390a1610638565b6001805474ff00000000000000000000000000000000000000001916740500000000000000000000000000000000000000001790556008547f81a5e88b00c2660f790b27221f79127ebaae2e3ffd4422e63456682041f567189060405190815260200160405180910390a1565b60015460a060020a900460ff1681565b60025481565b600160a060020a03166000908152600a602052604090205460ff1690565b60005433600160a060020a03908116911614610aa557600080fd5b600260015460a060020a900460ff166005811115610abf57fe5b14610ac957600080fd5b42851115610ad75760038590555b6000841115610ae65760048490555b6000831115610af55760058390555b6000821115610b045760068290555b6000811115610b135760078190555b60055460045411158015610b2b575060075460065411155b1515610b3657600080fd5b610b3e6108a6565b5050505050565b60005433600160a060020a03908116911614610b6057600080fd5b6001805460a060020a900460ff166005811115610b7957fe5b14610b8357600080fd5b6001805474ff00000000000000000000000000000000000000001916740200000000000000000000000000000000000000001790557f05bf9ecee4a9d8d35d42deb54e912956a511544fa82392cb8c65e5010eff55d460405160405180910390a1565b60055481565b60005433600160a060020a03908116911614610c0757600080fd5b600160a060020a0381161515610c1c57600080fd5b600054600160a060020a0380831691167f8be0079c531659141344cd1fd0a4f28419497f9722a3daafe3b4186f6b6457e060405160405180910390a36000805473ffffffffffffffffffffffffffffffffffffffff1916600160a060020a0392909216919091179055565b60085481565b60045481565b60005433600160a060020a03908116911614610cae57600080fd5b600160a060020a0381166000818152600a602052604090819020805460ff191690557ff0e86f93f7127c0fbbe66c81d3f9ffc791a274118b803ecaa8843f4f18c5978f905160405180910390a250565b600154600160a060020a031681565b600080831515610d205760009150610d3c565b50828202828482811515610d3057fe5b0414610d3857fe5b8091505b5092915050565b6000808284811515610d5157fe5b04949350505050565b600082820183811015610d3857fe5b600954600160a060020a03163480156108fc0290604051600060405180830381858888f19350505050151561063857600080fd00a165627a7a72305820088f3193ff3612a33b93ceeb9f51eae221c141848f62920334cc7c0bb324bd760029",
  "source": "pragma solidity ^0.4.18;\n\nimport './commons/SafeMath.sol';\nimport './base/BaseICO.sol';\n\n/**\n * @title OTCrit Pre-ICO smart contract.\n */\ncontract OTCPreICO is BaseICO {\n  using SafeMath for uint;\n\n  /// @dev 18 decimals for token\n  uint internal constant ONE_TOKEN = 1e18;\n\n  /// @dev 1e18 WEI == 1ETH == 5000 tokens\n  uint public constant ETH_TOKEN_EXCHANGE_RATIO = 5000;\n\n\n  function OTCPreICO(address icoToken_,\n                     address teamWallet_,\n                     uint lowCapWei_,\n                     uint hardCapWei_,\n                     uint lowCapTxWei_,\n                     uint hardCapTxWei_) public {\n    require(icoToken_ != address(0) && teamWallet_ != address(0));\n    token = BaseICOToken(icoToken_);\n    teamWallet = teamWallet_;\n    state = State.Inactive;\n    lowCapWei = lowCapWei_;\n    hardCapWei = hardCapWei_;\n    lowCapTxWei = lowCapTxWei_;\n    hardCapTxWei = hardCapTxWei_;\n  }\n\n  /**\n   * @dev Recalculate ICO state based on current block time.\n   * Should be called periodically by ICO owner.\n   */\n  function touch() public {\n    if (state != State.Active && state != State.Suspended) {\n      return;\n    }\n    if (collectedWei >= hardCapWei) {\n      state = State.Completed;\n      endAt = block.timestamp;\n      ICOCompleted(collectedWei);\n    } else if (block.timestamp >= endAt) {\n      if (collectedWei < lowCapWei) {\n        state = State.NotCompleted;\n        ICONotCompleted();\n      } else {\n        state = State.Completed;\n        ICOCompleted(collectedWei);\n      }\n    }\n  }\n\n  function buyTokens() public payable {\n    require(state == State.Active &&\n            block.timestamp <= endAt &&\n            msg.value >= lowCapTxWei &&\n            msg.value <= hardCapTxWei &&\n            collectedWei + msg.value <= hardCapWei &&\n            whitelisted(msg.sender));\n    uint amountWei = msg.value;\n    uint8 bonus = (block.timestamp - startAt >= 1 weeks) ? 10 : 15;\n    uint iwei = bonus > 0 ? amountWei.mul(100 + bonus).div(100) : amountWei;\n    uint itokens = iwei * ETH_TOKEN_EXCHANGE_RATIO;\n    token.icoInvestment(msg.sender, itokens); // Transfer tokens to investor\n    collectedWei = collectedWei.add(amountWei);\n    ICOInvestment(msg.sender, amountWei, itokens, bonus);\n    forwardFunds();\n    touch();\n  }\n\n  /**\n   * Disable direct payments\n   */\n  function() external payable {\n    buyTokens();\n  }\n}",
  "sourcePath": "/home/adam/Projects/fl/otcrit-token-service/otcrit-contracts/eth/contracts/OTCPreICO.sol",
  "compiler": {
    "name": "solc",
    "version": "0.4.18+commit.9cf6e910.Emscripten.clang"
  },
  "schemaVersion": "1.0.1",
  "updatedAt": "2018-01-23T12:49:08.233Z"
}