{
  "contractName": "OTCPreICO",
  "abi": [
    {
      "constant": false,
      "inputs": [],
      "name": "resume",
      "outputs": [],
      "payable": false,
      "stateMutability": "nonpayable",
      "type": "function"
    },
    {
      "constant": false,
      "inputs": [],
      "name": "terminate",
      "outputs": [],
      "payable": false,
      "stateMutability": "nonpayable",
      "type": "function"
    },
    {
      "constant": true,
      "inputs": [],
      "name": "ETH_TOKEN_EXCHANGE_RATIO",
      "outputs": [
        {
          "name": "",
          "type": "uint256"
        }
      ],
      "payable": false,
      "stateMutability": "view",
      "type": "function"
    },
    {
      "constant": true,
      "inputs": [],
      "name": "hardCapTxWei",
      "outputs": [
        {
          "name": "",
          "type": "uint256"
        }
      ],
      "payable": false,
      "stateMutability": "view",
      "type": "function"
    },
    {
      "constant": true,
      "inputs": [],
      "name": "lowCapTxWei",
      "outputs": [
        {
          "name": "",
          "type": "uint256"
        }
      ],
      "payable": false,
      "stateMutability": "view",
      "type": "function"
    },
    {
      "constant": true,
      "inputs": [],
      "name": "endAt",
      "outputs": [
        {
          "name": "",
          "type": "uint256"
        }
      ],
      "payable": false,
      "stateMutability": "view",
      "type": "function"
    },
    {
      "constant": true,
      "inputs": [],
      "name": "owner",
      "outputs": [
        {
          "name": "",
          "type": "address"
        }
      ],
      "payable": false,
      "stateMutability": "view",
      "type": "function"
    },
    {
      "constant": false,
      "inputs": [
        {
          "name": "endAt_",
          "type": "uint256"
        }
      ],
      "name": "start",
      "outputs": [],
      "payable": false,
      "stateMutability": "nonpayable",
      "type": "function"
    },
    {
      "constant": false,
      "inputs": [
        {
          "name": "address_",
          "type": "address"
        }
      ],
      "name": "whitelist",
      "outputs": [],
      "payable": false,
      "stateMutability": "nonpayable",
      "type": "function"
    },
    {
      "constant": false,
      "inputs": [],
      "name": "touch",
      "outputs": [],
      "payable": false,
      "stateMutability": "nonpayable",
      "type": "function"
    },
    {
      "constant": true,
      "inputs": [],
      "name": "state",
      "outputs": [
        {
          "name": "",
          "type": "uint8"
        }
      ],
      "payable": false,
      "stateMutability": "view",
      "type": "function"
    },
    {
      "constant": true,
      "inputs": [],
      "name": "startAt",
      "outputs": [
        {
          "name": "",
          "type": "uint256"
        }
      ],
      "payable": false,
      "stateMutability": "view",
      "type": "function"
    },
    {
      "constant": true,
      "inputs": [
        {
          "name": "address_",
          "type": "address"
        }
      ],
      "name": "whitelisted",
      "outputs": [
        {
          "name": "",
          "type": "bool"
        }
      ],
      "payable": false,
      "stateMutability": "view",
      "type": "function"
    },
    {
      "constant": false,
      "inputs": [
        {
          "name": "endAt_",
          "type": "uint256"
        },
        {
          "name": "lowCapWei_",
          "type": "uint256"
        },
        {
          "name": "hardCapWei_",
          "type": "uint256"
        },
        {
          "name": "lowCapTxWei_",
          "type": "uint256"
        },
        {
          "name": "hardCapTxWei_",
          "type": "uint256"
        }
      ],
      "name": "tune",
      "outputs": [],
      "payable": false,
      "stateMutability": "nonpayable",
      "type": "function"
    },
    {
      "constant": false,
      "inputs": [],
      "name": "suspend",
      "outputs": [],
      "payable": false,
      "stateMutability": "nonpayable",
      "type": "function"
    },
    {
      "constant": true,
      "inputs": [],
      "name": "hardCapWei",
      "outputs": [
        {
          "name": "",
          "type": "uint256"
        }
      ],
      "payable": false,
      "stateMutability": "view",
      "type": "function"
    },
    {
      "constant": false,
      "inputs": [
        {
          "name": "from_",
          "type": "address"
        }
      ],
      "name": "buyTokens",
      "outputs": [],
      "payable": true,
      "stateMutability": "payable",
      "type": "function"
    },
    {
      "constant": false,
      "inputs": [
        {
          "name": "newOwner",
          "type": "address"
        }
      ],
      "name": "transferOwnership",
      "outputs": [],
      "payable": false,
      "stateMutability": "nonpayable",
      "type": "function"
    },
    {
      "constant": true,
      "inputs": [],
      "name": "collectedWei",
      "outputs": [
        {
          "name": "",
          "type": "uint256"
        }
      ],
      "payable": false,
      "stateMutability": "view",
      "type": "function"
    },
    {
      "constant": true,
      "inputs": [],
      "name": "lowCapWei",
      "outputs": [
        {
          "name": "",
          "type": "uint256"
        }
      ],
      "payable": false,
      "stateMutability": "view",
      "type": "function"
    },
    {
      "constant": false,
      "inputs": [
        {
          "name": "address_",
          "type": "address"
        }
      ],
      "name": "blacklist",
      "outputs": [],
      "payable": false,
      "stateMutability": "nonpayable",
      "type": "function"
    },
    {
      "constant": true,
      "inputs": [],
      "name": "token",
      "outputs": [
        {
          "name": "",
          "type": "address"
        }
      ],
      "payable": false,
      "stateMutability": "view",
      "type": "function"
    },
    {
      "inputs": [
        {
          "name": "icoToken_",
          "type": "address"
        },
        {
          "name": "lowCapWei_",
          "type": "uint256"
        },
        {
          "name": "hardCapWei_",
          "type": "uint256"
        },
        {
          "name": "lowCapTxWei_",
          "type": "uint256"
        },
        {
          "name": "hardCapTxWei_",
          "type": "uint256"
        }
      ],
      "payable": false,
      "stateMutability": "nonpayable",
      "type": "constructor"
    },
    {
      "payable": true,
      "stateMutability": "payable",
      "type": "fallback"
    },
    {
      "anonymous": false,
      "inputs": [
        {
          "indexed": true,
          "name": "endAt",
          "type": "uint256"
        },
        {
          "indexed": false,
          "name": "lowCapWei",
          "type": "uint256"
        },
        {
          "indexed": false,
          "name": "hardCapWei",
          "type": "uint256"
        },
        {
          "indexed": false,
          "name": "lowCapTxWei",
          "type": "uint256"
        },
        {
          "indexed": false,
          "name": "hardCapTxWei",
          "type": "uint256"
        }
      ],
      "name": "ICOStarted",
      "type": "event"
    },
    {
      "anonymous": false,
      "inputs": [
        {
          "indexed": true,
          "name": "endAt",
          "type": "uint256"
        },
        {
          "indexed": false,
          "name": "lowCapWei",
          "type": "uint256"
        },
        {
          "indexed": false,
          "name": "hardCapWei",
          "type": "uint256"
        },
        {
          "indexed": false,
          "name": "lowCapTxWei",
          "type": "uint256"
        },
        {
          "indexed": false,
          "name": "hardCapTxWei",
          "type": "uint256"
        }
      ],
      "name": "ICOResumed",
      "type": "event"
    },
    {
      "anonymous": false,
      "inputs": [],
      "name": "ICOSuspended",
      "type": "event"
    },
    {
      "anonymous": false,
      "inputs": [],
      "name": "ICOTerminated",
      "type": "event"
    },
    {
      "anonymous": false,
      "inputs": [],
      "name": "ICONotCompleted",
      "type": "event"
    },
    {
      "anonymous": false,
      "inputs": [
        {
          "indexed": false,
          "name": "collectedWei",
          "type": "uint256"
        }
      ],
      "name": "ICOCompleted",
      "type": "event"
    },
    {
      "anonymous": false,
      "inputs": [
        {
          "indexed": true,
          "name": "from",
          "type": "address"
        },
        {
          "indexed": false,
          "name": "investedWei",
          "type": "uint256"
        },
        {
          "indexed": false,
          "name": "tokens",
          "type": "uint256"
        },
        {
          "indexed": false,
          "name": "bonusPct",
          "type": "uint8"
        }
      ],
      "name": "ICOInvestment",
      "type": "event"
    },
    {
      "anonymous": false,
      "inputs": [
        {
          "indexed": true,
          "name": "addr",
          "type": "address"
        }
      ],
      "name": "ICOWhitelisted",
      "type": "event"
    },
    {
      "anonymous": false,
      "inputs": [
        {
          "indexed": true,
          "name": "addr",
          "type": "address"
        }
      ],
      "name": "ICOBlacklisted",
      "type": "event"
    },
    {
      "anonymous": false,
      "inputs": [
        {
          "indexed": true,
          "name": "previousOwner",
          "type": "address"
        },
        {
          "indexed": true,
          "name": "newOwner",
          "type": "address"
        }
      ],
      "name": "OwnershipTransferred",
      "type": "event"
    }
  ],
  "bytecode": "0x6060604052341561000f57600080fd5b60405160a080610e29833981016040528080519190602001805191906020018051919060200180519190602001805160008054600160a060020a03191633600160a060020a039081169190911790915590925086161515905061007157600080fd5b60018054600160a060020a031916600160a060020a03969096169590951760a060020a60ff021916909455600492909255600555600655600755610d6f806100ba6000396000f3006060604052600436106101275763ffffffff7c0100000000000000000000000000000000000000000000000000000000600035041663046f7da281146101325780630c08bf8814610145578063281ae55814610158578063387ed59b1461017d57806338d2b172146101905780637cc3ae8c146101a35780638da5cb5b146101b657806395805dad146101e55780639b19251a146101fb578063a55526db1461021a578063c19d93fb1461022d578063c744656514610264578063d936547e14610277578063e18b170e146102aa578063e6400bbe146102cc578063e923e707146102df578063ec8ac4d8146102f2578063f2fde38b14610306578063f637b7da14610325578063f8b2e25914610338578063f9f92be41461034b578063fc0c546a1461036a575b6101303361037d565b005b341561013d57600080fd5b61013061055e565b341561015057600080fd5b61013061062a565b341561016357600080fd5b61016b610717565b60405190815260200160405180910390f35b341561018857600080fd5b61016b61071d565b341561019b57600080fd5b61016b610723565b34156101ae57600080fd5b61016b610729565b34156101c157600080fd5b6101c961072f565b604051600160a060020a03909116815260200160405180910390f35b34156101f057600080fd5b61013060043561073e565b341561020657600080fd5b610130600160a060020a0360043516610819565b341561022557600080fd5b610130610887565b341561023857600080fd5b610240610a37565b6040518082600581111561025057fe5b60ff16815260200191505060405180910390f35b341561026f57600080fd5b61016b610a47565b341561028257600080fd5b610296600160a060020a0360043516610a4d565b604051901515815260200160405180910390f35b34156102b557600080fd5b610130600435602435604435606435608435610a6b565b34156102d757600080fd5b610130610b1f565b34156102ea57600080fd5b61016b610bc0565b610130600160a060020a036004351661037d565b341561031157600080fd5b610130600160a060020a0360043516610bc6565b341561033057600080fd5b61016b610c61565b341561034357600080fd5b61016b610c67565b341561035657600080fd5b610130600160a060020a0360043516610c6d565b341561037557600080fd5b6101c9610cd8565b60008080806001805460a060020a900460ff16600581111561039b57fe5b1480156103aa57506003544211155b80156103b857506006543410155b80156103c657506007543411155b80156103d85750600554346008540111155b80156103e857506103e885610a4d565b15156103f357600080fd5b34935062093a806002544203101561040c57600f61040f565b600a5b925060008360ff16116104225783610448565b610448606461043c8660ff8784011663ffffffff610ce716565b9063ffffffff610d1d16565b60015490925061138883029150600160a060020a0316637277236b86836000604051602001526040517c010000000000000000000000000000000000000000000000000000000063ffffffff8516028152600160a060020a0390921660048301526024820152604401602060405180830381600087803b15156104ca57600080fd5b6102c65a03f115156104db57600080fd5b505050604051805150506008546104f8908563ffffffff610d3416565b600855600160a060020a0385167f6e36893a4e5bef2f5ed1c0125b68495c13ad948e138ef22973b4528514ef5668858386604051928352602083019190915260ff166040808301919091526060909101905180910390a2610557610887565b5050505050565b60005433600160a060020a0390811691161461057957600080fd5b600260015460a060020a900460ff16600581111561059357fe5b1461059d57600080fd5b60018054819074ff0000000000000000000000000000000000000000191660a060020a8202179055506003547f6bf99bbfcd93ccaeb69bf505b279813e6ea9427a02f344aebeca8e4b3e10cc466004546005546006546007546040518085815260200184815260200183815260200182815260200194505050505060405180910390a2610628610887565b565b60005433600160a060020a0390811691161461064557600080fd5b600360015460a060020a900460ff16600581111561065f57fe5b141580156106855750600460015460a060020a900460ff16600581111561068257fe5b14155b80156106a95750600560015460a060020a900460ff1660058111156106a657fe5b14155b15156106b457600080fd5b6001805474ff00000000000000000000000000000000000000001916740300000000000000000000000000000000000000001790557f1e2466c660fb4c22a780bb95549acaa2a7b03cca14c1dc1c82a7e36c8d5b357460405160405180910390a1565b61138881565b60075481565b60065481565b60035481565b600054600160a060020a031681565b60005433600160a060020a0390811691161461075957600080fd5b428111801561077f5750600060015460a060020a900460ff16600581111561077d57fe5b145b151561078a57600080fd5b60038190554260025560018054819074ff0000000000000000000000000000000000000000191660a060020a8202179055506003547f87e7dc5f7915642959de5fa47a1cb6307b5107406d5506813504ed14a7a30a516004546005546006546007546040518085815260200184815260200183815260200182815260200194505050505060405180910390a250565b60005433600160a060020a0390811691161461083457600080fd5b600160a060020a03811660008181526009602052604090819020805460ff191660011790557fd49ab244ff4dcab14bc41675d0476050d6f212b0856bb84100e1d474d6ec996b905160405180910390a250565b6001805460a060020a900460ff1660058111156108a057fe5b141580156108c65750600260015460a060020a900460ff1660058111156108c357fe5b14155b156108d057610628565b6005546008541061094f576001805474ff0000000000000000000000000000000000000000191674050000000000000000000000000000000000000000179055426003556008547f81a5e88b00c2660f790b27221f79127ebaae2e3ffd4422e63456682041f567189060405190815260200160405180910390a1610628565b60035442106106285760045460085410156109ca576001805474ff00000000000000000000000000000000000000001916740400000000000000000000000000000000000000001790557f98a1803cd1adfb4ad3bb0c3428807a3115d46cd6bed95016864944bd67c121f960405160405180910390a1610628565b6001805474ff00000000000000000000000000000000000000001916740500000000000000000000000000000000000000001790556008547f81a5e88b00c2660f790b27221f79127ebaae2e3ffd4422e63456682041f567189060405190815260200160405180910390a1565b60015460a060020a900460ff1681565b60025481565b600160a060020a031660009081526009602052604090205460ff1690565b60005433600160a060020a03908116911614610a8657600080fd5b600260015460a060020a900460ff166005811115610aa057fe5b14610aaa57600080fd5b42851115610ab85760038590555b6000841115610ac75760048490555b6000831115610ad65760058390555b6000821115610ae55760068290555b6000811115610af45760078190555b60055460045411158015610b0c575060075460065411155b1515610b1757600080fd5b610557610887565b60005433600160a060020a03908116911614610b3a57600080fd5b6001805460a060020a900460ff166005811115610b5357fe5b14610b5d57600080fd5b6001805474ff00000000000000000000000000000000000000001916740200000000000000000000000000000000000000001790557f05bf9ecee4a9d8d35d42deb54e912956a511544fa82392cb8c65e5010eff55d460405160405180910390a1565b60055481565b60005433600160a060020a03908116911614610be157600080fd5b600160a060020a0381161515610bf657600080fd5b600054600160a060020a0380831691167f8be0079c531659141344cd1fd0a4f28419497f9722a3daafe3b4186f6b6457e060405160405180910390a36000805473ffffffffffffffffffffffffffffffffffffffff1916600160a060020a0392909216919091179055565b60085481565b60045481565b60005433600160a060020a03908116911614610c8857600080fd5b600160a060020a03811660008181526009602052604090819020805460ff191690557ff0e86f93f7127c0fbbe66c81d3f9ffc791a274118b803ecaa8843f4f18c5978f905160405180910390a250565b600154600160a060020a031681565b600080831515610cfa5760009150610d16565b50828202828482811515610d0a57fe5b0414610d1257fe5b8091505b5092915050565b6000808284811515610d2b57fe5b04949350505050565b600082820183811015610d1257fe00a165627a7a723058206b1674dd7d451ee2a94e2be9b8b924a428ea4aa7e26516956ee5c4dec2c2574b0029",
  "source": "pragma solidity ^0.4.18;\n\nimport './commons/SafeMath.sol';\nimport './base/BaseICO.sol';\n\n/**\n * @title OTCrit Pre-ICO smart contract.\n */\ncontract OTCPreICO is BaseICO {\n  using SafeMath for uint;\n\n  /// @dev 18 decimals for token\n  uint internal constant ONE_TOKEN = 1e18;\n\n  /// @dev 1e18 WEI == 1ETH == 5000 tokens\n  uint public constant ETH_TOKEN_EXCHANGE_RATIO = 5000;\n\n\n  function OTCPreICO(address icoToken_,\n                     uint lowCapWei_,\n                     uint hardCapWei_,\n                     uint lowCapTxWei_,\n                     uint hardCapTxWei_) public {\n    require(icoToken_ != address(0));\n    token = BaseICOToken(icoToken_);\n    state = State.Inactive;\n    lowCapWei = lowCapWei_;\n    hardCapWei = hardCapWei_;\n    lowCapTxWei = lowCapTxWei_;\n    hardCapTxWei = hardCapTxWei_;\n  }\n\n  /**\n   * @dev Recalculate ICO state based on current block time.\n   * Should be called periodically by ICO owner.\n   */\n  function touch() public {\n    if (state != State.Active && state != State.Suspended) {\n      return;\n    }\n    if (collectedWei >= hardCapWei) {\n      state = State.Completed;\n      endAt = block.timestamp;\n      ICOCompleted(collectedWei);\n    } else if (block.timestamp >= endAt) {\n      if (collectedWei < lowCapWei) {\n        state = State.NotCompleted;\n        ICONotCompleted();\n      } else {\n        state = State.Completed;\n        ICOCompleted(collectedWei);\n      }\n    }\n  }\n\n  function buyTokens(address from_) public payable {\n    require(state == State.Active &&\n            block.timestamp <= endAt &&\n            msg.value >= lowCapTxWei &&\n            msg.value <= hardCapTxWei &&\n            collectedWei + msg.value <= hardCapWei &&\n            whitelisted(from_));\n    uint amountWei = msg.value;\n    uint8 bonus = (block.timestamp - startAt >= 1 weeks) ? 10 : 15;\n    uint iwei = bonus > 0 ? amountWei.mul(100 + bonus).div(100) : amountWei;\n    uint itokens = iwei * ETH_TOKEN_EXCHANGE_RATIO;\n    token.icoInvestment(from_, itokens); // Transfer tokens to investor\n    collectedWei = collectedWei.add(amountWei);\n    ICOInvestment(from_, amountWei, itokens, bonus);\n    touch();\n  }\n\n  /**\n   * Disable direct payments\n   */\n  function() external payable {\n    buyTokens(msg.sender);\n  }\n}",
  "sourcePath": "/home/adam/Projects/fl/otcrit-token-service/otcrit-contracts/eth/contracts/OTCPreICO.sol",
  "compiler": {
    "name": "solc",
    "version": "0.4.18+commit.9cf6e910.Emscripten.clang"
  },
  "schemaVersion": "1.0.1",
  "updatedAt": "2018-01-23T09:38:32.074Z"
}