{
  "contractName": "OTCToken",
  "abi": [
    {
      "constant": true,
      "inputs": [],
      "name": "name",
      "outputs": [
        {
          "name": "",
          "type": "string"
        }
      ],
      "payable": false,
      "stateMutability": "view",
      "type": "function"
    },
    {
      "constant": true,
      "inputs": [
        {
          "name": "side_",
          "type": "uint8"
        }
      ],
      "name": "getReservedTokens",
      "outputs": [
        {
          "name": "",
          "type": "uint256"
        }
      ],
      "payable": false,
      "stateMutability": "view",
      "type": "function"
    },
    {
      "constant": false,
      "inputs": [
        {
          "name": "spender_",
          "type": "address"
        },
        {
          "name": "value_",
          "type": "uint256"
        }
      ],
      "name": "approve",
      "outputs": [
        {
          "name": "",
          "type": "bool"
        }
      ],
      "payable": false,
      "stateMutability": "nonpayable",
      "type": "function"
    },
    {
      "constant": true,
      "inputs": [],
      "name": "totalSupply",
      "outputs": [
        {
          "name": "",
          "type": "uint256"
        }
      ],
      "payable": false,
      "stateMutability": "view",
      "type": "function"
    },
    {
      "constant": false,
      "inputs": [
        {
          "name": "from_",
          "type": "address"
        },
        {
          "name": "to_",
          "type": "address"
        },
        {
          "name": "value_",
          "type": "uint256"
        }
      ],
      "name": "transferFrom",
      "outputs": [
        {
          "name": "",
          "type": "bool"
        }
      ],
      "payable": false,
      "stateMutability": "nonpayable",
      "type": "function"
    },
    {
      "constant": true,
      "inputs": [],
      "name": "decimals",
      "outputs": [
        {
          "name": "",
          "type": "uint8"
        }
      ],
      "payable": false,
      "stateMutability": "view",
      "type": "function"
    },
    {
      "constant": true,
      "inputs": [],
      "name": "ico",
      "outputs": [
        {
          "name": "",
          "type": "address"
        }
      ],
      "payable": false,
      "stateMutability": "view",
      "type": "function"
    },
    {
      "constant": false,
      "inputs": [
        {
          "name": "ico_",
          "type": "address"
        }
      ],
      "name": "changeICO",
      "outputs": [],
      "payable": false,
      "stateMutability": "nonpayable",
      "type": "function"
    },
    {
      "constant": true,
      "inputs": [],
      "name": "RESERVED_TEAM_SIDE",
      "outputs": [
        {
          "name": "",
          "type": "uint8"
        }
      ],
      "payable": false,
      "stateMutability": "view",
      "type": "function"
    },
    {
      "constant": true,
      "inputs": [
        {
          "name": "owner_",
          "type": "address"
        }
      ],
      "name": "balanceOf",
      "outputs": [
        {
          "name": "balance",
          "type": "uint256"
        }
      ],
      "payable": false,
      "stateMutability": "view",
      "type": "function"
    },
    {
      "constant": false,
      "inputs": [
        {
          "name": "to_",
          "type": "address"
        },
        {
          "name": "amount_",
          "type": "uint256"
        }
      ],
      "name": "icoInvestment",
      "outputs": [
        {
          "name": "",
          "type": "uint256"
        }
      ],
      "payable": false,
      "stateMutability": "nonpayable",
      "type": "function"
    },
    {
      "constant": true,
      "inputs": [],
      "name": "availableSupply",
      "outputs": [
        {
          "name": "",
          "type": "uint256"
        }
      ],
      "payable": false,
      "stateMutability": "view",
      "type": "function"
    },
    {
      "constant": true,
      "inputs": [],
      "name": "owner",
      "outputs": [
        {
          "name": "",
          "type": "address"
        }
      ],
      "payable": false,
      "stateMutability": "view",
      "type": "function"
    },
    {
      "constant": true,
      "inputs": [],
      "name": "symbol",
      "outputs": [
        {
          "name": "",
          "type": "string"
        }
      ],
      "payable": false,
      "stateMutability": "view",
      "type": "function"
    },
    {
      "constant": true,
      "inputs": [
        {
          "name": "",
          "type": "uint8"
        }
      ],
      "name": "reserved",
      "outputs": [
        {
          "name": "",
          "type": "uint256"
        }
      ],
      "payable": false,
      "stateMutability": "view",
      "type": "function"
    },
    {
      "constant": false,
      "inputs": [],
      "name": "unlock",
      "outputs": [],
      "payable": false,
      "stateMutability": "nonpayable",
      "type": "function"
    },
    {
      "constant": false,
      "inputs": [
        {
          "name": "to_",
          "type": "address"
        },
        {
          "name": "value_",
          "type": "uint256"
        }
      ],
      "name": "transfer",
      "outputs": [
        {
          "name": "",
          "type": "bool"
        }
      ],
      "payable": false,
      "stateMutability": "nonpayable",
      "type": "function"
    },
    {
      "constant": true,
      "inputs": [],
      "name": "RESERVED_PARTNERS_SIDE",
      "outputs": [
        {
          "name": "",
          "type": "uint8"
        }
      ],
      "payable": false,
      "stateMutability": "view",
      "type": "function"
    },
    {
      "constant": false,
      "inputs": [
        {
          "name": "to_",
          "type": "address"
        },
        {
          "name": "side_",
          "type": "uint8"
        },
        {
          "name": "amount_",
          "type": "uint256"
        }
      ],
      "name": "reserve",
      "outputs": [],
      "payable": false,
      "stateMutability": "nonpayable",
      "type": "function"
    },
    {
      "constant": true,
      "inputs": [],
      "name": "locked",
      "outputs": [
        {
          "name": "",
          "type": "bool"
        }
      ],
      "payable": false,
      "stateMutability": "view",
      "type": "function"
    },
    {
      "constant": true,
      "inputs": [],
      "name": "RESERVED_BOUNTY_SIDE",
      "outputs": [
        {
          "name": "",
          "type": "uint8"
        }
      ],
      "payable": false,
      "stateMutability": "view",
      "type": "function"
    },
    {
      "constant": true,
      "inputs": [
        {
          "name": "owner_",
          "type": "address"
        },
        {
          "name": "spender_",
          "type": "address"
        }
      ],
      "name": "allowance",
      "outputs": [
        {
          "name": "",
          "type": "uint256"
        }
      ],
      "payable": false,
      "stateMutability": "view",
      "type": "function"
    },
    {
      "constant": true,
      "inputs": [],
      "name": "RESERVED_OTHERS_SIDE",
      "outputs": [
        {
          "name": "",
          "type": "uint8"
        }
      ],
      "payable": false,
      "stateMutability": "view",
      "type": "function"
    },
    {
      "constant": false,
      "inputs": [
        {
          "name": "newOwner",
          "type": "address"
        }
      ],
      "name": "transferOwnership",
      "outputs": [],
      "payable": false,
      "stateMutability": "nonpayable",
      "type": "function"
    },
    {
      "constant": false,
      "inputs": [],
      "name": "lock",
      "outputs": [],
      "payable": false,
      "stateMutability": "nonpayable",
      "type": "function"
    },
    {
      "inputs": [
        {
          "name": "totalSupplyTokens_",
          "type": "uint256"
        },
        {
          "name": "reservedTeamTokens_",
          "type": "uint256"
        },
        {
          "name": "reservedPartnersTokens_",
          "type": "uint256"
        },
        {
          "name": "reservedBountyTokens_",
          "type": "uint256"
        },
        {
          "name": "reservedOtherTokens_",
          "type": "uint256"
        }
      ],
      "payable": false,
      "stateMutability": "nonpayable",
      "type": "constructor"
    },
    {
      "payable": true,
      "stateMutability": "payable",
      "type": "fallback"
    },
    {
      "anonymous": false,
      "inputs": [
        {
          "indexed": true,
          "name": "to",
          "type": "address"
        },
        {
          "indexed": false,
          "name": "side",
          "type": "uint8"
        },
        {
          "indexed": false,
          "name": "amount",
          "type": "uint256"
        }
      ],
      "name": "ReservedICOTokensDistributed",
      "type": "event"
    },
    {
      "anonymous": false,
      "inputs": [
        {
          "indexed": true,
          "name": "to",
          "type": "address"
        },
        {
          "indexed": false,
          "name": "amount",
          "type": "uint256"
        }
      ],
      "name": "ICOTokensInvested",
      "type": "event"
    },
    {
      "anonymous": false,
      "inputs": [
        {
          "indexed": true,
          "name": "icoContract",
          "type": "address"
        }
      ],
      "name": "ICOChanged",
      "type": "event"
    },
    {
      "anonymous": false,
      "inputs": [
        {
          "indexed": true,
          "name": "from",
          "type": "address"
        },
        {
          "indexed": true,
          "name": "to",
          "type": "address"
        },
        {
          "indexed": false,
          "name": "value",
          "type": "uint256"
        }
      ],
      "name": "Transfer",
      "type": "event"
    },
    {
      "anonymous": false,
      "inputs": [
        {
          "indexed": true,
          "name": "owner",
          "type": "address"
        },
        {
          "indexed": true,
          "name": "spender",
          "type": "address"
        },
        {
          "indexed": false,
          "name": "value",
          "type": "uint256"
        }
      ],
      "name": "Approval",
      "type": "event"
    },
    {
      "anonymous": false,
      "inputs": [],
      "name": "Lock",
      "type": "event"
    },
    {
      "anonymous": false,
      "inputs": [],
      "name": "Unlock",
      "type": "event"
    },
    {
      "anonymous": false,
      "inputs": [
        {
          "indexed": true,
          "name": "previousOwner",
          "type": "address"
        },
        {
          "indexed": true,
          "name": "newOwner",
          "type": "address"
        }
      ],
      "name": "OwnershipTransferred",
      "type": "event"
    }
  ],
  "bytecode": "0x606060409081526000805460a060020a60ff02191690558051908101604052600c81527f4f746372697420746f6b656e0000000000000000000000000000000000000000602082015260069080516200005d92916020019062000245565b5060408051908101604052600381527f4f5443000000000000000000000000000000000000000000000000000000000060208201526007908051620000a792916020019062000245565b5060088054610100601260ff199092169190911761ff0019161762ff00001916620200001763ff000000191663040000001764ff0000000019166408000000001790553415620000f657600080fd5b60405160a080620011e683398101604052808051919060200180519190602001805191906020018051919060200180516000805474010000000000000000000000000000000000000000600160a060020a031990911633600160a060020a03161760a060020a60ff021916179055670de0b6b3a7640000870260018190556004559150859050620001b2826200019d868189886401000000006200022e810262000e6e1704565b9064010000000062000e6e6200022e82021704565b1115620001be57600080fd5b6008805460ff6101009091048116600090815260096020526040808220670de0b6b3a76400009889029055835462010000900483168252808220958802909555825463010000009004821681528481209587029095559054640100000000900416835291209102905550620002ea565b6000828201838110156200023e57fe5b9392505050565b828054600181600116156101000203166002900490600052602060002090601f016020900481019282601f106200028857805160ff1916838001178555620002b8565b82800160010185558215620002b8579182015b82811115620002b85782518255916020019190600101906200029b565b50620002c6929150620002ca565b5090565b620002e791905b80821115620002c65760008155600101620002d1565b90565b610eec80620002fa6000396000f3006060604052600436106101485763ffffffff7c010000000000000000000000000000000000000000000000000000000060003504166306fdde03811461014d57806308612c35146101d7578063095ea7b31461020257806318160ddd1461023857806323b872dd1461024b578063313ce567146102735780635d4522011461029c5780636d47fb71146102cb5780636f3b6d00146102ec57806370a08231146102ff5780637277236b1461031e5780637ecc2b56146103405780638da5cb5b1461035357806395d89b411461036657806397ab478614610379578063a69df4b514610392578063a9059cbb146103a5578063c065fcf1146103c7578063cebc8d78146103da578063cf30901214610402578063d195fd2814610415578063dd62ed3e14610428578063dfa15b581461044d578063f2fde38b14610460578063f83d08ba1461047f575b600080fd5b341561015857600080fd5b610160610492565b60405160208082528190810183818151815260200191508051906020019080838360005b8381101561019c578082015183820152602001610184565b50505050905090810190601f1680156101c95780820380516001836020036101000a031916815260200191505b509250505060405180910390f35b34156101e257600080fd5b6101f060ff60043516610530565b60405190815260200160405180910390f35b341561020d57600080fd5b610224600160a060020a0360043516602435610545565b604051901515815260200160405180910390f35b341561024357600080fd5b6101f0610614565b341561025657600080fd5b610224600160a060020a036004358116906024351660443561061a565b341561027e57600080fd5b6102866107c3565b60405160ff909116815260200160405180910390f35b34156102a757600080fd5b6102af6107cc565b604051600160a060020a03909116815260200160405180910390f35b34156102d657600080fd5b6102ea600160a060020a03600435166107db565b005b34156102f757600080fd5b610286610869565b341561030a57600080fd5b6101f0600160a060020a0360043516610877565b341561032957600080fd5b6101f0600160a060020a0360043516602435610892565b341561034b57600080fd5b6101f0610943565b341561035e57600080fd5b6102af610949565b341561037157600080fd5b610160610958565b341561038457600080fd5b6101f060ff600435166109c3565b341561039d57600080fd5b6102ea6109d5565b34156103b057600080fd5b610224600160a060020a0360043516602435610a65565b34156103d257600080fd5b610286610b88565b34156103e557600080fd5b6102ea600160a060020a036004351660ff60243516604435610b98565b341561040d57600080fd5b610224610caf565b341561042057600080fd5b610286610cd0565b341561043357600080fd5b6101f0600160a060020a0360043581169060243516610cdf565b341561045857600080fd5b610286610d0a565b341561046b57600080fd5b6102ea600160a060020a0360043516610d1b565b341561048a57600080fd5b6102ea610db6565b60068054600181600116156101000203166002900480601f0160208091040260200160405190810160405280929190818152602001828054600181600116156101000203166002900480156105285780601f106104fd57610100808354040283529160200191610528565b820191906000526020600020905b81548152906001019060200180831161050b57829003601f168201915b505050505081565b60ff1660009081526009602052604090205490565b6000805474010000000000000000000000000000000000000000900460ff161561056e57600080fd5b81158015906105a15750600160a060020a0333811660009081526003602090815260408083209387168352929052205415155b156105ab57600080fd5b600160a060020a03338116600081815260036020908152604080832094881680845294909152908190208590557f8c5be1e5ebec7d5bd14f71427d1e84f3dd0314c0f7b2291e5b200ac8c7c3b9259085905190815260200160405180910390a350600192915050565b60015481565b6000805474010000000000000000000000000000000000000000900460ff161561064357600080fd5b600160a060020a038316158015906106735750600160a060020a0384166000908152600260205260409020548211155b80156106a55750600160a060020a03808516600090815260036020908152604080832033909416835292905220548211155b15156106b057600080fd5b600160a060020a0384166000908152600260205260409020546106d9908363ffffffff610e5c16565b600160a060020a03808616600090815260026020526040808220939093559085168152205461070e908363ffffffff610e6e16565b600160a060020a03808516600090815260026020908152604080832094909455878316825260038152838220339093168252919091522054610756908363ffffffff610e5c16565b600160a060020a03808616600081815260036020908152604080832033861684529091529081902093909355908516917fddf252ad1be2c89b69c2b068fc378daa952ba7f163c4a11628f55a4df523b3ef9085905190815260200160405180910390a35060019392505050565b60085460ff1681565b600554600160a060020a031681565b60005433600160a060020a039081169116146107f657600080fd5b600160a060020a038116151561080b57600080fd5b6005805473ffffffffffffffffffffffffffffffffffffffff1916600160a060020a038381169190911791829055167ff75d34bb42a98ed9c96ce1821b7834a59d12693611bf4fe2776dae6d512d6d1460405160405180910390a250565b600854610100900460ff1681565b600160a060020a031660009081526002602052604090205490565b600061089e8383610e84565b15156108a957600080fd5b6004548211156108b95760045491505b600480548390039055600160a060020a0383166000908152600260205260409020546108eb908363ffffffff610e6e16565b600160a060020a0384166000818152600260205260409081902092909255907fb34195a3d0de1e5150c8bbe5f5163b622b1ed771ce55319230906552a62160649084905190815260200160405180910390a250919050565b60045481565b600054600160a060020a031681565b60078054600181600116156101000203166002900480601f0160208091040260200160405190810160405280929190818152602001828054600181600116156101000203166002900480156105285780601f106104fd57610100808354040283529160200191610528565b60096020526000908152604090205481565b60005433600160a060020a039081169116146109f057600080fd5b60005474010000000000000000000000000000000000000000900460ff161515610a1957600080fd5b6000805474ff0000000000000000000000000000000000000000191690557f70e3fffea7bbb557facdee48ed7f7af5179030adef9ad0c876df039a718f359e60405160405180910390a1565b6000805474010000000000000000000000000000000000000000900460ff1615610a8e57600080fd5b600160a060020a03831615801590610abe5750600160a060020a0333166000908152600260205260409020548211155b1515610ac957600080fd5b600160a060020a033316600090815260026020526040902054610af2908363ffffffff610e5c16565b600160a060020a033381166000908152600260205260408082209390935590851681522054610b27908363ffffffff610e6e16565b600160a060020a0380851660008181526002602052604090819020939093559133909116907fddf252ad1be2c89b69c2b068fc378daa952ba7f163c4a11628f55a4df523b3ef9085905190815260200160405180910390a350600192915050565b6008546301000000900460ff1681565b60005433600160a060020a03908116911614610bb357600080fd5b600160a060020a03831615801590610bcd5750600f821615155b1515610bd857600080fd5b600454610beb908263ffffffff610e5c16565b60045560ff8216600090815260096020526040902054610c11908263ffffffff610e5c16565b60ff8316600090815260096020908152604080832093909355600160a060020a0386168252600290522054610c4c908263ffffffff610e6e16565b600160a060020a0384166000818152600260205260409081902092909255907f26a8928a7d5cd5e76104c269a85e2b89cc90d12ab043ecf577c6202159e9bdae90849084905160ff909216825260208201526040908101905180910390a2505050565b60005474010000000000000000000000000000000000000000900460ff1681565b60085462010000900460ff1681565b600160a060020a03918216600090815260036020908152604080832093909416825291909152205490565b600854640100000000900460ff1681565b60005433600160a060020a03908116911614610d3657600080fd5b600160a060020a0381161515610d4b57600080fd5b600054600160a060020a0380831691167f8be0079c531659141344cd1fd0a4f28419497f9722a3daafe3b4186f6b6457e060405160405180910390a36000805473ffffffffffffffffffffffffffffffffffffffff1916600160a060020a0392909216919091179055565b60005433600160a060020a03908116911614610dd157600080fd5b60005474010000000000000000000000000000000000000000900460ff1615610df957600080fd5b6000805474ff00000000000000000000000000000000000000001916740100000000000000000000000000000000000000001790557f46620e39f4e119bf05f13544f8ef38338fc06c17f6b731c7f95bee356572db9660405160405180910390a1565b600082821115610e6857fe5b50900390565b600082820183811015610e7d57fe5b9392505050565b60055460009033600160a060020a039081169116148015610ead5750600160a060020a03831615155b8015610e7d5750506004549011159190505600a165627a7a72305820eb92f089aa35ff2c17d700157bd7e01c9fb39f6b89bb012e40509c93689a8b530029",
  "source": "pragma solidity ^0.4.18;\n\nimport './commons/SafeMath.sol';\nimport './base/BaseICOToken.sol';\n\n/**\n * @title ERC20 OTC Token https://otcrit.org\n */\ncontract OTCToken is BaseICOToken {\n  using SafeMath for uint;\n\n  string public name = 'Otcrit token';\n\n  string public symbol = 'OTC';\n\n  uint8 public decimals = 18;\n\n  uint internal constant ONE_TOKEN = 1e18;\n\n  /// @dev Fired some tokens distributed to someone from team,bounty,parthners,others\n  event ReservedICOTokensDistributed(address indexed to, uint8 side, uint amount);\n\n  /**\n   * @dev Constructor\n   * @param totalSupplyTokens_ Total amount of tokens supplied\n   * @param reservedTeamTokens_ Number of tokens reserved for team\n   * @param reservedPartnersTokens_ Number of tokens reserved for partners\n   * @param reservedBountyTokens_ Number of tokens reserved for bounty participants\n   * @param reservedOtherTokens_ Number of privately distributed tokens reserved for others\n   */\n  function OTCToken(uint totalSupplyTokens_,\n                    uint reservedTeamTokens_,\n                    uint reservedPartnersTokens_,\n                    uint reservedBountyTokens_,\n                    uint reservedOtherTokens_)\n    BaseICOToken(totalSupplyTokens_ * ONE_TOKEN) public {\n    require(reservedTeamTokens_\n            .add(reservedBountyTokens_)\n            .add(reservedPartnersTokens_)\n            .add(reservedOtherTokens_) <= totalSupplyTokens_);\n    reserved[RESERVED_TEAM_SIDE] = reservedTeamTokens_ * ONE_TOKEN;\n    reserved[RESERVED_BOUNTY_SIDE] = reservedBountyTokens_ * ONE_TOKEN;\n    reserved[RESERVED_PARTNERS_SIDE] = reservedPartnersTokens_ * ONE_TOKEN;\n    reserved[RESERVED_OTHERS_SIDE] = reservedOtherTokens_ * ONE_TOKEN;\n  }\n\n  // Disable direct payments\n  function() external payable {\n    revert();\n  }\n\n  //---------------------------- OTC specific\n\n  /// @dev Tokens for team members\n  uint8 public RESERVED_TEAM_SIDE = 0x1;\n\n  /// @dev Tokens for bounty participants\n  uint8 public RESERVED_BOUNTY_SIDE = 0x2;\n\n  /// @dev Tokens for OTCRIT partners\n  uint8 public RESERVED_PARTNERS_SIDE = 0x4;\n\n  /// @dev Other privately distributed tokens\n  uint8 public RESERVED_OTHERS_SIDE = 0x8;\n\n  /// @dev Token reservation mapping: key(RESERVED_X) => value(number of tokens)\n  mapping(uint8 => uint) public reserved;\n\n  /**\n   * @dev Get recerved tokens for specific side\n   */\n  function getReservedTokens(uint8 side_) view public returns (uint) {\n    return reserved[side_];\n  }\n\n  /**\n   * @dev Assign `amount_` of privately distributed tokens\n   *      to someone identified with `to_` address.\n   * @param to_   Tokens owner\n   * @param side_ Group identifier of privately distributed tokens\n   * @param amount_ Number of tokens distributed\n   */\n  function reserve(address to_, uint8 side_, uint amount_) onlyOwner public {\n    require(to_ != address(0) && (side_ & 0xf) != 0);\n    availableSupply = availableSupply.sub(amount_);\n    // SafeMath will check reserved[side_] >= amount\n    reserved[side_] = reserved[side_].sub(amount_);\n    balances[to_] = balances[to_].add(amount_);\n    ReservedICOTokensDistributed(to_, side_, amount_);\n  }\n}\n",
  "sourcePath": "/home/adam/Projects/fl/otcrit-token-service/otcrit-contracts/eth/contracts/OTCToken.sol",
  "compiler": {
    "name": "solc",
    "version": "0.4.18+commit.9cf6e910.Emscripten.clang"
  },
  "schemaVersion": "1.0.1",
  "updatedAt": "2018-01-23T09:38:32.075Z"
}