{
  "contractName": "OTCToken",
  "abi": [
    {
      "constant": true,
      "inputs": [],
      "name": "name",
      "outputs": [
        {
          "name": "",
          "type": "string"
        }
      ],
      "payable": false,
      "stateMutability": "view",
      "type": "function"
    },
    {
      "constant": true,
      "inputs": [
        {
          "name": "side_",
          "type": "uint8"
        }
      ],
      "name": "getReservedTokens",
      "outputs": [
        {
          "name": "",
          "type": "uint256"
        }
      ],
      "payable": false,
      "stateMutability": "view",
      "type": "function"
    },
    {
      "constant": false,
      "inputs": [
        {
          "name": "spender_",
          "type": "address"
        },
        {
          "name": "value_",
          "type": "uint256"
        }
      ],
      "name": "approve",
      "outputs": [
        {
          "name": "",
          "type": "bool"
        }
      ],
      "payable": false,
      "stateMutability": "nonpayable",
      "type": "function"
    },
    {
      "constant": false,
      "inputs": [
        {
          "name": "to_",
          "type": "address"
        },
        {
          "name": "side_",
          "type": "uint8"
        },
        {
          "name": "amount_",
          "type": "uint256"
        }
      ],
      "name": "assignReserved",
      "outputs": [],
      "payable": false,
      "stateMutability": "nonpayable",
      "type": "function"
    },
    {
      "constant": true,
      "inputs": [],
      "name": "totalSupply",
      "outputs": [
        {
          "name": "",
          "type": "uint256"
        }
      ],
      "payable": false,
      "stateMutability": "view",
      "type": "function"
    },
    {
      "constant": false,
      "inputs": [
        {
          "name": "from_",
          "type": "address"
        },
        {
          "name": "to_",
          "type": "address"
        },
        {
          "name": "value_",
          "type": "uint256"
        }
      ],
      "name": "transferFrom",
      "outputs": [
        {
          "name": "",
          "type": "bool"
        }
      ],
      "payable": false,
      "stateMutability": "nonpayable",
      "type": "function"
    },
    {
      "constant": true,
      "inputs": [],
      "name": "decimals",
      "outputs": [
        {
          "name": "",
          "type": "uint8"
        }
      ],
      "payable": false,
      "stateMutability": "view",
      "type": "function"
    },
    {
      "constant": true,
      "inputs": [],
      "name": "ico",
      "outputs": [
        {
          "name": "",
          "type": "address"
        }
      ],
      "payable": false,
      "stateMutability": "view",
      "type": "function"
    },
    {
      "constant": false,
      "inputs": [
        {
          "name": "ico_",
          "type": "address"
        }
      ],
      "name": "changeICO",
      "outputs": [],
      "payable": false,
      "stateMutability": "nonpayable",
      "type": "function"
    },
    {
      "constant": true,
      "inputs": [],
      "name": "RESERVED_TEAM_SIDE",
      "outputs": [
        {
          "name": "",
          "type": "uint8"
        }
      ],
      "payable": false,
      "stateMutability": "view",
      "type": "function"
    },
    {
      "constant": true,
      "inputs": [
        {
          "name": "owner_",
          "type": "address"
        }
      ],
      "name": "balanceOf",
      "outputs": [
        {
          "name": "balance",
          "type": "uint256"
        }
      ],
      "payable": false,
      "stateMutability": "view",
      "type": "function"
    },
    {
      "constant": false,
      "inputs": [
        {
          "name": "to_",
          "type": "address"
        },
        {
          "name": "amount_",
          "type": "uint256"
        }
      ],
      "name": "icoInvestment",
      "outputs": [
        {
          "name": "",
          "type": "uint256"
        }
      ],
      "payable": false,
      "stateMutability": "nonpayable",
      "type": "function"
    },
    {
      "constant": true,
      "inputs": [],
      "name": "availableSupply",
      "outputs": [
        {
          "name": "",
          "type": "uint256"
        }
      ],
      "payable": false,
      "stateMutability": "view",
      "type": "function"
    },
    {
      "constant": true,
      "inputs": [],
      "name": "owner",
      "outputs": [
        {
          "name": "",
          "type": "address"
        }
      ],
      "payable": false,
      "stateMutability": "view",
      "type": "function"
    },
    {
      "constant": true,
      "inputs": [],
      "name": "symbol",
      "outputs": [
        {
          "name": "",
          "type": "string"
        }
      ],
      "payable": false,
      "stateMutability": "view",
      "type": "function"
    },
    {
      "constant": true,
      "inputs": [
        {
          "name": "",
          "type": "uint8"
        }
      ],
      "name": "reserved",
      "outputs": [
        {
          "name": "",
          "type": "uint256"
        }
      ],
      "payable": false,
      "stateMutability": "view",
      "type": "function"
    },
    {
      "constant": false,
      "inputs": [],
      "name": "unlock",
      "outputs": [],
      "payable": false,
      "stateMutability": "nonpayable",
      "type": "function"
    },
    {
      "constant": false,
      "inputs": [
        {
          "name": "to_",
          "type": "address"
        },
        {
          "name": "value_",
          "type": "uint256"
        }
      ],
      "name": "transfer",
      "outputs": [
        {
          "name": "",
          "type": "bool"
        }
      ],
      "payable": false,
      "stateMutability": "nonpayable",
      "type": "function"
    },
    {
      "constant": true,
      "inputs": [],
      "name": "RESERVED_PARTNERS_SIDE",
      "outputs": [
        {
          "name": "",
          "type": "uint8"
        }
      ],
      "payable": false,
      "stateMutability": "view",
      "type": "function"
    },
    {
      "constant": true,
      "inputs": [],
      "name": "locked",
      "outputs": [
        {
          "name": "",
          "type": "bool"
        }
      ],
      "payable": false,
      "stateMutability": "view",
      "type": "function"
    },
    {
      "constant": true,
      "inputs": [],
      "name": "RESERVED_BOUNTY_SIDE",
      "outputs": [
        {
          "name": "",
          "type": "uint8"
        }
      ],
      "payable": false,
      "stateMutability": "view",
      "type": "function"
    },
    {
      "constant": true,
      "inputs": [
        {
          "name": "owner_",
          "type": "address"
        },
        {
          "name": "spender_",
          "type": "address"
        }
      ],
      "name": "allowance",
      "outputs": [
        {
          "name": "",
          "type": "uint256"
        }
      ],
      "payable": false,
      "stateMutability": "view",
      "type": "function"
    },
    {
      "constant": true,
      "inputs": [],
      "name": "RESERVED_OTHERS_SIDE",
      "outputs": [
        {
          "name": "",
          "type": "uint8"
        }
      ],
      "payable": false,
      "stateMutability": "view",
      "type": "function"
    },
    {
      "constant": false,
      "inputs": [
        {
          "name": "newOwner",
          "type": "address"
        }
      ],
      "name": "transferOwnership",
      "outputs": [],
      "payable": false,
      "stateMutability": "nonpayable",
      "type": "function"
    },
    {
      "constant": false,
      "inputs": [],
      "name": "lock",
      "outputs": [],
      "payable": false,
      "stateMutability": "nonpayable",
      "type": "function"
    },
    {
      "inputs": [
        {
          "name": "totalSupplyTokens_",
          "type": "uint256"
        },
        {
          "name": "reservedTeamTokens_",
          "type": "uint256"
        },
        {
          "name": "reservedPartnersTokens_",
          "type": "uint256"
        },
        {
          "name": "reservedBountyTokens_",
          "type": "uint256"
        },
        {
          "name": "reservedOtherTokens_",
          "type": "uint256"
        }
      ],
      "payable": false,
      "stateMutability": "nonpayable",
      "type": "constructor"
    },
    {
      "payable": true,
      "stateMutability": "payable",
      "type": "fallback"
    },
    {
      "anonymous": false,
      "inputs": [
        {
          "indexed": true,
          "name": "to",
          "type": "address"
        },
        {
          "indexed": false,
          "name": "side",
          "type": "uint8"
        },
        {
          "indexed": false,
          "name": "amount",
          "type": "uint256"
        }
      ],
      "name": "ReservedTokensDistributed",
      "type": "event"
    },
    {
      "anonymous": false,
      "inputs": [
        {
          "indexed": true,
          "name": "to",
          "type": "address"
        },
        {
          "indexed": false,
          "name": "amount",
          "type": "uint256"
        }
      ],
      "name": "ICOTokensInvested",
      "type": "event"
    },
    {
      "anonymous": false,
      "inputs": [
        {
          "indexed": true,
          "name": "icoContract",
          "type": "address"
        }
      ],
      "name": "ICOChanged",
      "type": "event"
    },
    {
      "anonymous": false,
      "inputs": [
        {
          "indexed": true,
          "name": "from",
          "type": "address"
        },
        {
          "indexed": true,
          "name": "to",
          "type": "address"
        },
        {
          "indexed": false,
          "name": "value",
          "type": "uint256"
        }
      ],
      "name": "Transfer",
      "type": "event"
    },
    {
      "anonymous": false,
      "inputs": [
        {
          "indexed": true,
          "name": "owner",
          "type": "address"
        },
        {
          "indexed": true,
          "name": "spender",
          "type": "address"
        },
        {
          "indexed": false,
          "name": "value",
          "type": "uint256"
        }
      ],
      "name": "Approval",
      "type": "event"
    },
    {
      "anonymous": false,
      "inputs": [],
      "name": "Lock",
      "type": "event"
    },
    {
      "anonymous": false,
      "inputs": [],
      "name": "Unlock",
      "type": "event"
    },
    {
      "anonymous": false,
      "inputs": [
        {
          "indexed": true,
          "name": "previousOwner",
          "type": "address"
        },
        {
          "indexed": true,
          "name": "newOwner",
          "type": "address"
        }
      ],
      "name": "OwnershipTransferred",
      "type": "event"
    }
  ],
  "bytecode": "0x60606040526000805460a060020a60ff0219908116909155600580547401000000000000000000000000000000000000000092169190911760a860020a60ff02191675020000000000000000000000000000000000000000001760b060020a60ff0219167604000000000000000000000000000000000000000000001760b860020a60ff0219167708000000000000000000000000000000000000000000000017905534156100ad57600080fd5b60405160a0806110f183398101604052808051919060200180519190602001805191906020018051919060200180516000805474010000000000000000000000000000000000000000600160a060020a031990911633600160a060020a03161760a060020a60ff021916179055670de0b6b3a76400008702600181905560045591506101369050565b61019f670de0b6b3a7640000820261018c670de0b6b3a7640000860261018c670de0b6b3a7640000870261018c670de0b6b3a76400008b0260045461025d64010000000002610de3179091906401000000009004565b90640100000000610de361025d82021704565b6004556005805460ff740100000000000000000000000000000000000000009091048116600090815260066020526040808220670de0b6b3a7640000988902905583547501000000000000000000000000000000000000000000900483168252808220958802909555825476010000000000000000000000000000000000000000000090048216815284812095870290955590547701000000000000000000000000000000000000000000000090041683529120910290555061026f565b60008282111561026957fe5b50900390565b610e738061027e6000396000f3006060604052600436106101485763ffffffff7c010000000000000000000000000000000000000000000000000000000060003504166306fdde03811461014d57806308612c35146101d7578063095ea7b3146102025780631019635d1461023857806318160ddd1461026257806323b872dd14610275578063313ce5671461029d5780635d452201146102c65780636d47fb71146102f55780636f3b6d001461031457806370a08231146103275780637277236b146103465780637ecc2b56146103685780638da5cb5b1461037b57806395d89b411461038e57806397ab4786146103a1578063a69df4b5146103ba578063a9059cbb146103cd578063c065fcf1146103ef578063cf30901214610402578063d195fd2814610415578063dd62ed3e14610428578063dfa15b581461044d578063f2fde38b14610460578063f83d08ba1461047f575b600080fd5b341561015857600080fd5b610160610492565b60405160208082528190810183818151815260200191508051906020019080838360005b8381101561019c578082015183820152602001610184565b50505050905090810190601f1680156101c95780820380516001836020036101000a031916815260200191505b509250505060405180910390f35b34156101e257600080fd5b6101f060ff600435166104c9565b60405190815260200160405180910390f35b341561020d57600080fd5b610224600160a060020a03600435166024356104de565b604051901515815260200160405180910390f35b341561024357600080fd5b610260600160a060020a036004351660ff602435166044356105ad565b005b341561026d57600080fd5b6101f06106ae565b341561028057600080fd5b610224600160a060020a03600435811690602435166044356106b4565b34156102a857600080fd5b6102b061085d565b60405160ff909116815260200160405180910390f35b34156102d157600080fd5b6102d9610862565b604051600160a060020a03909116815260200160405180910390f35b341561030057600080fd5b610260600160a060020a0360043516610871565b341561031f57600080fd5b6102b06108ff565b341561033257600080fd5b6101f0600160a060020a0360043516610920565b341561035157600080fd5b6101f0600160a060020a036004351660243561093b565b341561037357600080fd5b6101f06109dc565b341561038657600080fd5b6102d96109e2565b341561039957600080fd5b6101606109f1565b34156103ac57600080fd5b6101f060ff60043516610a28565b34156103c557600080fd5b610260610a3a565b34156103d857600080fd5b610224600160a060020a0360043516602435610aca565b34156103fa57600080fd5b6102b0610bed565b341561040d57600080fd5b610224610c10565b341561042057600080fd5b6102b0610c31565b341561043357600080fd5b6101f0600160a060020a0360043581169060243516610c53565b341561045857600080fd5b6102b0610c7e565b341561046b57600080fd5b610260600160a060020a0360043516610ca2565b341561048a57600080fd5b610260610d3d565b60408051908101604052600c81527f4f746372697420746f6b656e0000000000000000000000000000000000000000602082015281565b60ff1660009081526006602052604090205490565b6000805474010000000000000000000000000000000000000000900460ff161561050757600080fd5b811580159061053a5750600160a060020a0333811660009081526003602090815260408083209387168352929052205415155b1561054457600080fd5b600160a060020a03338116600081815260036020908152604080832094881680845294909152908190208590557f8c5be1e5ebec7d5bd14f71427d1e84f3dd0314c0f7b2291e5b200ac8c7c3b9259085905190815260200160405180910390a350600192915050565b60005433600160a060020a039081169116146105c857600080fd5b600160a060020a038316158015906105e25750600f821615155b15156105ed57600080fd5b60ff8216600090815260066020526040902054610610908263ffffffff610de316565b60ff8316600090815260066020908152604080832093909355600160a060020a038616825260029052205461064b908263ffffffff610df516565b600160a060020a0384166000818152600260205260409081902092909255907f9b25e6f19951830b3dbcfcd62be59f689237a770339d40af72e2380fc4042fe490849084905160ff909216825260208201526040908101905180910390a2505050565b60015481565b6000805474010000000000000000000000000000000000000000900460ff16156106dd57600080fd5b600160a060020a0383161580159061070d5750600160a060020a0384166000908152600260205260409020548211155b801561073f5750600160a060020a03808516600090815260036020908152604080832033909416835292905220548211155b151561074a57600080fd5b600160a060020a038416600090815260026020526040902054610773908363ffffffff610de316565b600160a060020a0380861660009081526002602052604080822093909355908516815220546107a8908363ffffffff610df516565b600160a060020a038085166000908152600260209081526040808320949094558783168252600381528382203390931682529190915220546107f0908363ffffffff610de316565b600160a060020a03808616600081815260036020908152604080832033861684529091529081902093909355908516917fddf252ad1be2c89b69c2b068fc378daa952ba7f163c4a11628f55a4df523b3ef9085905190815260200160405180910390a35060019392505050565b601281565b600554600160a060020a031681565b60005433600160a060020a0390811691161461088c57600080fd5b600160a060020a03811615156108a157600080fd5b6005805473ffffffffffffffffffffffffffffffffffffffff1916600160a060020a038381169190911791829055167ff75d34bb42a98ed9c96ce1821b7834a59d12693611bf4fe2776dae6d512d6d1460405160405180910390a250565b60055474010000000000000000000000000000000000000000900460ff1681565b600160a060020a031660009081526002602052604090205490565b60006109478383610e0b565b151561095257600080fd5b600480548390039055600160a060020a038316600090815260026020526040902054610984908363ffffffff610df516565b600160a060020a0384166000818152600260205260409081902092909255907fb34195a3d0de1e5150c8bbe5f5163b622b1ed771ce55319230906552a62160649084905190815260200160405180910390a250919050565b60045481565b600054600160a060020a031681565b60408051908101604052600381527f4f54430000000000000000000000000000000000000000000000000000000000602082015281565b60066020526000908152604090205481565b60005433600160a060020a03908116911614610a5557600080fd5b60005474010000000000000000000000000000000000000000900460ff161515610a7e57600080fd5b6000805474ff0000000000000000000000000000000000000000191690557f70e3fffea7bbb557facdee48ed7f7af5179030adef9ad0c876df039a718f359e60405160405180910390a1565b6000805474010000000000000000000000000000000000000000900460ff1615610af357600080fd5b600160a060020a03831615801590610b235750600160a060020a0333166000908152600260205260409020548211155b1515610b2e57600080fd5b600160a060020a033316600090815260026020526040902054610b57908363ffffffff610de316565b600160a060020a033381166000908152600260205260408082209390935590851681522054610b8c908363ffffffff610df516565b600160a060020a0380851660008181526002602052604090819020939093559133909116907fddf252ad1be2c89b69c2b068fc378daa952ba7f163c4a11628f55a4df523b3ef9085905190815260200160405180910390a350600192915050565b600554760100000000000000000000000000000000000000000000900460ff1681565b60005474010000000000000000000000000000000000000000900460ff1681565b6005547501000000000000000000000000000000000000000000900460ff1681565b600160a060020a03918216600090815260036020908152604080832093909416825291909152205490565b60055477010000000000000000000000000000000000000000000000900460ff1681565b60005433600160a060020a03908116911614610cbd57600080fd5b600160a060020a0381161515610cd257600080fd5b600054600160a060020a0380831691167f8be0079c531659141344cd1fd0a4f28419497f9722a3daafe3b4186f6b6457e060405160405180910390a36000805473ffffffffffffffffffffffffffffffffffffffff1916600160a060020a0392909216919091179055565b60005433600160a060020a03908116911614610d5857600080fd5b60005474010000000000000000000000000000000000000000900460ff1615610d8057600080fd5b6000805474ff00000000000000000000000000000000000000001916740100000000000000000000000000000000000000001790557f46620e39f4e119bf05f13544f8ef38338fc06c17f6b731c7f95bee356572db9660405160405180910390a1565b600082821115610def57fe5b50900390565b600082820183811015610e0457fe5b9392505050565b60055460009033600160a060020a039081169116148015610e345750600160a060020a03831615155b8015610e045750506004549011159190505600a165627a7a723058205e5342e18e9fb39d889525d40f19785a6ef14c96cd804fb14d09e54e42a879030029",
  "source": "pragma solidity ^0.4.18;\n\nimport './commons/SafeMath.sol';\nimport './base/BaseICOToken.sol';\n\n/**\n * @title ERC20 OTC Token https://otcrit.org\n */\ncontract OTCToken is BaseICOToken {\n  using SafeMath for uint;\n\n  string public constant name = 'Otcrit token';\n\n  string public constant symbol = 'OTC';\n\n  uint8 public constant decimals = 18;\n\n  uint internal constant ONE_TOKEN = 1e18;\n\n\n  /// @dev Fired some tokens distributed to someone from team,bounty,parthners,others\n  event ReservedTokensDistributed(address indexed to, uint8 side, uint amount);\n\n  /**\n   * @dev Constructor\n   * @param totalSupplyTokens_ Total amount of tokens supplied\n   * @param reservedTeamTokens_ Number of tokens reserved for team\n   * @param reservedPartnersTokens_ Number of tokens reserved for partners\n   * @param reservedBountyTokens_ Number of tokens reserved for bounty participants\n   * @param reservedOtherTokens_ Number of privately distributed tokens reserved for others\n   */\n  function OTCToken(uint totalSupplyTokens_,\n                    uint reservedTeamTokens_,\n                    uint reservedPartnersTokens_,\n                    uint reservedBountyTokens_,\n                    uint reservedOtherTokens_)\n    BaseICOToken(totalSupplyTokens_ * ONE_TOKEN) public {\n    require(availableSupply == totalSupply);\n    availableSupply = availableSupply\n                        .sub(reservedTeamTokens_ * ONE_TOKEN)\n                        .sub(reservedBountyTokens_ * ONE_TOKEN)\n                        .sub(reservedPartnersTokens_ * ONE_TOKEN)\n                        .sub(reservedOtherTokens_ * ONE_TOKEN);\n    reserved[RESERVED_TEAM_SIDE] = reservedTeamTokens_ * ONE_TOKEN;\n    reserved[RESERVED_BOUNTY_SIDE] = reservedBountyTokens_ * ONE_TOKEN;\n    reserved[RESERVED_PARTNERS_SIDE] = reservedPartnersTokens_ * ONE_TOKEN;\n    reserved[RESERVED_OTHERS_SIDE] = reservedOtherTokens_ * ONE_TOKEN;\n  }\n\n  // Disable direct payments\n  function() external payable {\n    revert();\n  }\n\n  //---------------------------- OTC specific\n\n  /// @dev Tokens for team members\n  uint8 public RESERVED_TEAM_SIDE = 0x1;\n\n  /// @dev Tokens for bounty participants\n  uint8 public RESERVED_BOUNTY_SIDE = 0x2;\n\n  /// @dev Tokens for OTCRIT partners\n  uint8 public RESERVED_PARTNERS_SIDE = 0x4;\n\n  /// @dev Other privately distributed tokens\n  uint8 public RESERVED_OTHERS_SIDE = 0x8;\n\n  /// @dev Token reservation mapping: key(RESERVED_X) => value(number of tokens)\n  mapping(uint8 => uint) public reserved;\n\n  /**\n   * @dev Get recerved tokens for specific side\n   */\n  function getReservedTokens(uint8 side_) view public returns (uint) {\n    return reserved[side_];\n  }\n\n  /**\n   * @dev Assign `amount_` of privately distributed tokens\n   *      to someone identified with `to_` address.\n   * @param to_   Tokens owner\n   * @param side_ Group identifier of privately distributed tokens\n   * @param amount_ Number of tokens distributed\n   */\n  function assignReserved(address to_, uint8 side_, uint amount_) onlyOwner public {\n    require(to_ != address(0) && (side_ & 0xf) != 0);\n    // SafeMath will check reserved[side_] >= amount\n    reserved[side_] = reserved[side_].sub(amount_);\n    balances[to_] = balances[to_].add(amount_);\n    ReservedTokensDistributed(to_, side_, amount_);\n  }\n}\n",
  "sourcePath": "/home/adam/Projects/fl/otcrit-token-service/otcrit-contracts/eth/contracts/OTCToken.sol",
  "compiler": {
    "name": "solc",
    "version": "0.4.18+commit.9cf6e910.Emscripten.clang"
  },
  "schemaVersion": "1.0.1",
  "updatedAt": "2018-01-24T06:40:57.372Z"
}